{
  "contractName": "FlightToken",
  "abi": [
    {
      "inputs": [],
      "stateMutability": "nonpayable",
      "type": "constructor"
    },
    {
      "anonymous": false,
      "inputs": [
        {
          "indexed": true,
          "internalType": "address",
          "name": "owner",
          "type": "address"
        },
        {
          "indexed": true,
          "internalType": "address",
          "name": "approved",
          "type": "address"
        },
        {
          "indexed": true,
          "internalType": "uint256",
          "name": "tokenId",
          "type": "uint256"
        }
      ],
      "name": "Approval",
      "type": "event"
    },
    {
      "anonymous": false,
      "inputs": [
        {
          "indexed": true,
          "internalType": "address",
          "name": "owner",
          "type": "address"
        },
        {
          "indexed": true,
          "internalType": "address",
          "name": "operator",
          "type": "address"
        },
        {
          "indexed": false,
          "internalType": "bool",
          "name": "approved",
          "type": "bool"
        }
      ],
      "name": "ApprovalForAll",
      "type": "event"
    },
    {
      "anonymous": false,
      "inputs": [
        {
          "indexed": true,
          "internalType": "address",
          "name": "previousOwner",
          "type": "address"
        },
        {
          "indexed": true,
          "internalType": "address",
          "name": "newOwner",
          "type": "address"
        }
      ],
      "name": "OwnershipTransferred",
      "type": "event"
    },
    {
      "anonymous": false,
      "inputs": [
        {
          "indexed": true,
          "internalType": "address",
          "name": "from",
          "type": "address"
        },
        {
          "indexed": true,
          "internalType": "address",
          "name": "to",
          "type": "address"
        },
        {
          "indexed": true,
          "internalType": "uint256",
          "name": "tokenId",
          "type": "uint256"
        }
      ],
      "name": "Transfer",
      "type": "event"
    },
    {
      "inputs": [
        {
          "internalType": "address",
          "name": "to",
          "type": "address"
        },
        {
          "internalType": "uint256",
          "name": "tokenId",
          "type": "uint256"
        }
      ],
      "name": "approve",
      "outputs": [],
      "stateMutability": "nonpayable",
      "type": "function"
    },
    {
      "inputs": [
        {
          "internalType": "address",
          "name": "owner",
          "type": "address"
        }
      ],
      "name": "balanceOf",
      "outputs": [
        {
          "internalType": "uint256",
          "name": "",
          "type": "uint256"
        }
      ],
      "stateMutability": "view",
      "type": "function",
      "constant": true
    },
    {
      "inputs": [
        {
          "internalType": "uint256",
          "name": "tokenId",
          "type": "uint256"
        }
      ],
      "name": "getApproved",
      "outputs": [
        {
          "internalType": "address",
          "name": "",
          "type": "address"
        }
      ],
      "stateMutability": "view",
      "type": "function",
      "constant": true
    },
    {
      "inputs": [
        {
          "internalType": "address",
          "name": "owner",
          "type": "address"
        },
        {
          "internalType": "address",
          "name": "operator",
          "type": "address"
        }
      ],
      "name": "isApprovedForAll",
      "outputs": [
        {
          "internalType": "bool",
          "name": "",
          "type": "bool"
        }
      ],
      "stateMutability": "view",
      "type": "function",
      "constant": true
    },
    {
      "inputs": [],
      "name": "name",
      "outputs": [
        {
          "internalType": "string",
          "name": "",
          "type": "string"
        }
      ],
      "stateMutability": "view",
      "type": "function",
      "constant": true
    },
    {
      "inputs": [],
      "name": "owner",
      "outputs": [
        {
          "internalType": "address",
          "name": "",
          "type": "address"
        }
      ],
      "stateMutability": "view",
      "type": "function",
      "constant": true
    },
    {
      "inputs": [
        {
          "internalType": "uint256",
          "name": "tokenId",
          "type": "uint256"
        }
      ],
      "name": "ownerOf",
      "outputs": [
        {
          "internalType": "address",
          "name": "",
          "type": "address"
        }
      ],
      "stateMutability": "view",
      "type": "function",
      "constant": true
    },
    {
      "inputs": [],
      "name": "renounceOwnership",
      "outputs": [],
      "stateMutability": "nonpayable",
      "type": "function"
    },
    {
      "inputs": [
        {
          "internalType": "address",
          "name": "from",
          "type": "address"
        },
        {
          "internalType": "address",
          "name": "to",
          "type": "address"
        },
        {
          "internalType": "uint256",
          "name": "tokenId",
          "type": "uint256"
        }
      ],
      "name": "safeTransferFrom",
      "outputs": [],
      "stateMutability": "nonpayable",
      "type": "function"
    },
    {
      "inputs": [
        {
          "internalType": "address",
          "name": "from",
          "type": "address"
        },
        {
          "internalType": "address",
          "name": "to",
          "type": "address"
        },
        {
          "internalType": "uint256",
          "name": "tokenId",
          "type": "uint256"
        },
        {
          "internalType": "bytes",
          "name": "_data",
          "type": "bytes"
        }
      ],
      "name": "safeTransferFrom",
      "outputs": [],
      "stateMutability": "nonpayable",
      "type": "function"
    },
    {
      "inputs": [
        {
          "internalType": "address",
          "name": "operator",
          "type": "address"
        },
        {
          "internalType": "bool",
          "name": "approved",
          "type": "bool"
        }
      ],
      "name": "setApprovalForAll",
      "outputs": [],
      "stateMutability": "nonpayable",
      "type": "function"
    },
    {
      "inputs": [],
      "name": "symbol",
      "outputs": [
        {
          "internalType": "string",
          "name": "",
          "type": "string"
        }
      ],
      "stateMutability": "view",
      "type": "function",
      "constant": true
    },
    {
      "inputs": [
        {
          "internalType": "uint256",
          "name": "",
          "type": "uint256"
        }
      ],
      "name": "tickets",
      "outputs": [
        {
          "internalType": "string",
          "name": "customer_name",
          "type": "string"
        },
        {
          "internalType": "string",
          "name": "customer_last_name",
          "type": "string"
        },
        {
          "internalType": "string",
          "name": "departure_city",
          "type": "string"
        },
        {
          "internalType": "string",
          "name": "arrival_city",
          "type": "string"
        },
        {
          "internalType": "string",
          "name": "date_of_purchase",
          "type": "string"
        },
        {
          "internalType": "string",
          "name": "departure_date",
          "type": "string"
        },
        {
          "internalType": "uint256",
          "name": "price",
          "type": "uint256"
        },
        {
          "internalType": "string",
          "name": "airplane_code",
          "type": "string"
        },
        {
          "internalType": "uint256",
          "name": "ticket_code",
          "type": "uint256"
        }
      ],
      "stateMutability": "view",
      "type": "function",
      "constant": true
    },
    {
      "inputs": [
        {
          "internalType": "uint256",
          "name": "index",
          "type": "uint256"
        }
      ],
      "name": "tokenByIndex",
      "outputs": [
        {
          "internalType": "uint256",
          "name": "",
          "type": "uint256"
        }
      ],
      "stateMutability": "view",
      "type": "function",
      "constant": true
    },
    {
      "inputs": [
        {
          "internalType": "address",
          "name": "owner",
          "type": "address"
        },
        {
          "internalType": "uint256",
          "name": "index",
          "type": "uint256"
        }
      ],
      "name": "tokenOfOwnerByIndex",
      "outputs": [
        {
          "internalType": "uint256",
          "name": "",
          "type": "uint256"
        }
      ],
      "stateMutability": "view",
      "type": "function",
      "constant": true
    },
    {
      "inputs": [
        {
          "internalType": "uint256",
          "name": "tokenId",
          "type": "uint256"
        }
      ],
      "name": "tokenURI",
      "outputs": [
        {
          "internalType": "string",
          "name": "",
          "type": "string"
        }
      ],
      "stateMutability": "view",
      "type": "function",
      "constant": true
    },
    {
      "inputs": [],
      "name": "totalSupply",
      "outputs": [
        {
          "internalType": "uint256",
          "name": "",
          "type": "uint256"
        }
      ],
      "stateMutability": "view",
      "type": "function",
      "constant": true
    },
    {
      "inputs": [
        {
          "internalType": "address",
          "name": "from",
          "type": "address"
        },
        {
          "internalType": "address",
          "name": "to",
          "type": "address"
        },
        {
          "internalType": "uint256",
          "name": "tokenId",
          "type": "uint256"
        }
      ],
      "name": "transferFrom",
      "outputs": [],
      "stateMutability": "nonpayable",
      "type": "function"
    },
    {
      "inputs": [
        {
          "internalType": "address",
          "name": "newOwner",
          "type": "address"
        }
      ],
      "name": "transferOwnership",
      "outputs": [],
      "stateMutability": "nonpayable",
      "type": "function"
    },
    {
      "inputs": [
        {
          "internalType": "string",
          "name": "_customer_name",
          "type": "string"
        },
        {
          "internalType": "string",
          "name": "_customer_last_name",
          "type": "string"
        },
        {
          "internalType": "string",
          "name": "_departure_city",
          "type": "string"
        },
        {
          "internalType": "string",
          "name": "_arrival_city",
          "type": "string"
        },
        {
          "internalType": "string",
          "name": "_date_of_purchase",
          "type": "string"
        },
        {
          "internalType": "string",
          "name": "_departure_date",
          "type": "string"
        },
        {
          "internalType": "uint256",
          "name": "_price",
          "type": "uint256"
        },
        {
          "internalType": "string",
          "name": "_airplane_code",
          "type": "string"
        }
      ],
      "name": "safeMint",
      "outputs": [
        {
          "internalType": "uint256",
          "name": "",
          "type": "uint256"
        }
      ],
      "stateMutability": "payable",
      "type": "function",
      "payable": true
    },
    {
      "inputs": [
        {
          "internalType": "bytes4",
          "name": "interfaceId",
          "type": "bytes4"
        }
      ],
      "name": "supportsInterface",
      "outputs": [
        {
          "internalType": "bool",
          "name": "",
          "type": "bool"
        }
      ],
      "stateMutability": "view",
      "type": "function",
      "constant": true
    }
  ],
  "bytecode": "0x60806040523480156200001157600080fd5b506040518060400160405280600b81526020017f466c69676874546f6b656e0000000000000000000000000000000000000000008152506040518060400160405280600381526020017f464c540000000000000000000000000000000000000000000000000000000000815250816000908051906020019062000096929190620001a6565b508060019080519060200190620000af929190620001a6565b505050620000d2620000c6620000d860201b60201c565b620000e060201b60201c565b620002bb565b600033905090565b6000600a60009054906101000a900473ffffffffffffffffffffffffffffffffffffffff16905081600a60006101000a81548173ffffffffffffffffffffffffffffffffffffffff021916908373ffffffffffffffffffffffffffffffffffffffff1602179055508173ffffffffffffffffffffffffffffffffffffffff168173ffffffffffffffffffffffffffffffffffffffff167f8be0079c531659141344cd1fd0a4f28419497f9722a3daafe3b4186f6b6457e060405160405180910390a35050565b828054620001b49062000256565b90600052602060002090601f016020900481019282620001d8576000855562000224565b82601f10620001f357805160ff191683800117855562000224565b8280016001018555821562000224579182015b828111156200022357825182559160200191906001019062000206565b5b50905062000233919062000237565b5090565b5b808211156200025257600081600090555060010162000238565b5090565b600060028204905060018216806200026f57607f821691505b602082108114156200028657620002856200028c565b5b50919050565b7f4e487b7100000000000000000000000000000000000000000000000000000000600052602260045260246000fd5b613f6480620002cb6000396000f3fe60806040526004361061012a5760003560e01c80636352211e116100ab57806395d89b411161006f57806395d89b4114610425578063a22cb46514610450578063b88d4fde14610479578063c87b56dd146104a2578063e985e9c5146104df578063f2fde38b1461051c5761012a565b80636352211e1461033957806370a0823114610376578063715018a6146103b357806387da7376146103ca5780638da5cb5b146103fa5761012a565b806323b872dd116100f257806323b872dd146102285780632f745c591461025157806342842e0e1461028e5780634f6ccce7146102b757806350b44712146102f45761012a565b806301ffc9a71461012f57806306fdde031461016c578063081812fc14610197578063095ea7b3146101d457806318160ddd146101fd575b600080fd5b34801561013b57600080fd5b5061015660048036038101906101519190612b85565b610545565b604051610163919061319d565b60405180910390f35b34801561017857600080fd5b50610181610557565b60405161018e91906131b8565b60405180910390f35b3480156101a357600080fd5b506101be60048036038101906101b99190612d59565b6105e9565b6040516101cb9190613136565b60405180910390f35b3480156101e057600080fd5b506101fb60048036038101906101f69190612b45565b61066e565b005b34801561020957600080fd5b50610212610786565b60405161021f9190613518565b60405180910390f35b34801561023457600080fd5b5061024f600480360381019061024a9190612a2f565b610793565b005b34801561025d57600080fd5b5061027860048036038101906102739190612b45565b6107f3565b6040516102859190613518565b60405180910390f35b34801561029a57600080fd5b506102b560048036038101906102b09190612a2f565b610898565b005b3480156102c357600080fd5b506102de60048036038101906102d99190612d59565b6108b8565b6040516102eb9190613518565b60405180910390f35b34801561030057600080fd5b5061031b60048036038101906103169190612d59565b610929565b604051610330999897969594939291906131da565b60405180910390f35b34801561034557600080fd5b50610360600480360381019061035b9190612d59565b610d3f565b60405161036d9190613136565b60405180910390f35b34801561038257600080fd5b5061039d600480360381019061039891906129c2565b610df1565b6040516103aa9190613518565b60405180910390f35b3480156103bf57600080fd5b506103c8610ea9565b005b6103e460048036038101906103df9190612bdf565b610f31565b6040516103f19190613518565b60405180910390f35b34801561040657600080fd5b5061040f61115d565b60405161041c9190613136565b60405180910390f35b34801561043157600080fd5b5061043a611187565b60405161044791906131b8565b60405180910390f35b34801561045c57600080fd5b5061047760048036038101906104729190612b05565b611219565b005b34801561048557600080fd5b506104a0600480360381019061049b9190612a82565b61122f565b005b3480156104ae57600080fd5b506104c960048036038101906104c49190612d59565b611291565b6040516104d691906131b8565b60405180910390f35b3480156104eb57600080fd5b50610506600480360381019061050191906129ef565b611338565b604051610513919061319d565b60405180910390f35b34801561052857600080fd5b50610543600480360381019061053e91906129c2565b6113cc565b005b6000610550826114c4565b9050919050565b6060600080546105669061376e565b80601f01602080910402602001604051908101604052809291908181526020018280546105929061376e565b80156105df5780601f106105b4576101008083540402835291602001916105df565b820191906000526020600020905b8154815290600101906020018083116105c257829003601f168201915b5050505050905090565b60006105f48261153e565b610633576040517f08c379a000000000000000000000000000000000000000000000000000000000815260040161062a90613458565b60405180910390fd5b6004600083815260200190815260200160002060009054906101000a900473ffffffffffffffffffffffffffffffffffffffff169050919050565b600061067982610d3f565b90508073ffffffffffffffffffffffffffffffffffffffff168373ffffffffffffffffffffffffffffffffffffffff1614156106ea576040517f08c379a00000000000000000000000000000000000000000000000000000000081526004016106e1906134b8565b60405180910390fd5b8073ffffffffffffffffffffffffffffffffffffffff166107096115aa565b73ffffffffffffffffffffffffffffffffffffffff1614806107385750610737816107326115aa565b611338565b5b610777576040517f08c379a000000000000000000000000000000000000000000000000000000000815260040161076e906133b8565b60405180910390fd5b61078183836115b2565b505050565b6000600880549050905090565b6107a461079e6115aa565b8261166b565b6107e3576040517f08c379a00000000000000000000000000000000000000000000000000000000081526004016107da906134d8565b60405180910390fd5b6107ee838383611749565b505050565b60006107fe83610df1565b821061083f576040517f08c379a0000000000000000000000000000000000000000000000000000000008152600401610836906132b8565b60405180910390fd5b600660008473ffffffffffffffffffffffffffffffffffffffff1673ffffffffffffffffffffffffffffffffffffffff168152602001908152602001600020600083815260200190815260200160002054905092915050565b6108b38383836040518060200160405280600081525061122f565b505050565b60006108c2610786565b8210610903576040517f08c379a00000000000000000000000000000000000000000000000000000000081526004016108fa906134f8565b60405180910390fd5b6008828154811061091757610916613907565b5b90600052602060002001549050919050565b600b818154811061093957600080fd5b906000526020600020906009020160009150905080600001805461095c9061376e565b80601f01602080910402602001604051908101604052809291908181526020018280546109889061376e565b80156109d55780601f106109aa576101008083540402835291602001916109d5565b820191906000526020600020905b8154815290600101906020018083116109b857829003601f168201915b5050505050908060010180546109ea9061376e565b80601f0160208091040260200160405190810160405280929190818152602001828054610a169061376e565b8015610a635780601f10610a3857610100808354040283529160200191610a63565b820191906000526020600020905b815481529060010190602001808311610a4657829003601f168201915b505050505090806002018054610a789061376e565b80601f0160208091040260200160405190810160405280929190818152602001828054610aa49061376e565b8015610af15780601f10610ac657610100808354040283529160200191610af1565b820191906000526020600020905b815481529060010190602001808311610ad457829003601f168201915b505050505090806003018054610b069061376e565b80601f0160208091040260200160405190810160405280929190818152602001828054610b329061376e565b8015610b7f5780601f10610b5457610100808354040283529160200191610b7f565b820191906000526020600020905b815481529060010190602001808311610b6257829003601f168201915b505050505090806004018054610b949061376e565b80601f0160208091040260200160405190810160405280929190818152602001828054610bc09061376e565b8015610c0d5780601f10610be257610100808354040283529160200191610c0d565b820191906000526020600020905b815481529060010190602001808311610bf057829003601f168201915b505050505090806005018054610c229061376e565b80601f0160208091040260200160405190810160405280929190818152602001828054610c4e9061376e565b8015610c9b5780601f10610c7057610100808354040283529160200191610c9b565b820191906000526020600020905b815481529060010190602001808311610c7e57829003601f168201915b505050505090806006015490806007018054610cb69061376e565b80601f0160208091040260200160405190810160405280929190818152602001828054610ce29061376e565b8015610d2f5780601f10610d0457610100808354040283529160200191610d2f565b820191906000526020600020905b815481529060010190602001808311610d1257829003601f168201915b5050505050908060080154905089565b6000806002600084815260200190815260200160002060009054906101000a900473ffffffffffffffffffffffffffffffffffffffff169050600073ffffffffffffffffffffffffffffffffffffffff168173ffffffffffffffffffffffffffffffffffffffff161415610de8576040517f08c379a0000000000000000000000000000000000000000000000000000000008152600401610ddf90613418565b60405180910390fd5b80915050919050565b60008073ffffffffffffffffffffffffffffffffffffffff168273ffffffffffffffffffffffffffffffffffffffff161415610e62576040517f08c379a0000000000000000000000000000000000000000000000000000000008152600401610e59906133f8565b60405180910390fd5b600360008373ffffffffffffffffffffffffffffffffffffffff1673ffffffffffffffffffffffffffffffffffffffff168152602001908152602001600020549050919050565b610eb16115aa565b73ffffffffffffffffffffffffffffffffffffffff16610ecf61115d565b73ffffffffffffffffffffffffffffffffffffffff1614610f25576040517f08c379a0000000000000000000000000000000000000000000000000000000008152600401610f1c90613478565b60405180910390fd5b610f2f60006119b0565b565b6000670de0b6b3a7640000341015610f7e576040517f08c379a0000000000000000000000000000000000000000000000000000000008152600401610f75906133d8565b60405180910390fd5b610f88600c611a76565b60006040518061012001604052808b81526020018a8152602001898152602001888152602001878152602001868152602001858152602001848152602001610fd0600c611a8c565b8152509050600b819080600181540180825580915050600190039060005260206000209060090201600090919091909150600082015181600001908051906020019061101d9291906127d6565b50602082015181600101908051906020019061103a9291906127d6565b5060408201518160020190805190602001906110579291906127d6565b5060608201518160030190805190602001906110749291906127d6565b5060808201518160040190805190602001906110919291906127d6565b5060a08201518160050190805190602001906110ae9291906127d6565b5060c0820151816006015560e08201518160070190805190602001906110d59291906127d6565b50610100820151816008015550506110f6336110f1600c611a8c565b611a9a565b6110fe61115d565b73ffffffffffffffffffffffffffffffffffffffff166108fc479081150290604051600060405180830381858888f19350505050158015611143573d6000803e3d6000fd5b5061114e600c611a8c565b91505098975050505050505050565b6000600a60009054906101000a900473ffffffffffffffffffffffffffffffffffffffff16905090565b6060600180546111969061376e565b80601f01602080910402602001604051908101604052809291908181526020018280546111c29061376e565b801561120f5780601f106111e45761010080835404028352916020019161120f565b820191906000526020600020905b8154815290600101906020018083116111f257829003601f168201915b5050505050905090565b61122b6112246115aa565b8383611ab8565b5050565b61124061123a6115aa565b8361166b565b61127f576040517f08c379a0000000000000000000000000000000000000000000000000000000008152600401611276906134d8565b60405180910390fd5b61128b84848484611c25565b50505050565b606061129c8261153e565b6112db576040517f08c379a00000000000000000000000000000000000000000000000000000000081526004016112d290613498565b60405180910390fd5b60006112e5611c81565b905060008151116113055760405180602001604052806000815250611330565b8061130f84611c98565b604051602001611320929190613112565b6040516020818303038152906040525b915050919050565b6000600560008473ffffffffffffffffffffffffffffffffffffffff1673ffffffffffffffffffffffffffffffffffffffff16815260200190815260200160002060008373ffffffffffffffffffffffffffffffffffffffff1673ffffffffffffffffffffffffffffffffffffffff16815260200190815260200160002060009054906101000a900460ff16905092915050565b6113d46115aa565b73ffffffffffffffffffffffffffffffffffffffff166113f261115d565b73ffffffffffffffffffffffffffffffffffffffff1614611448576040517f08c379a000000000000000000000000000000000000000000000000000000000815260040161143f90613478565b60405180910390fd5b600073ffffffffffffffffffffffffffffffffffffffff168173ffffffffffffffffffffffffffffffffffffffff1614156114b8576040517f08c379a00000000000000000000000000000000000000000000000000000000081526004016114af906132f8565b60405180910390fd5b6114c1816119b0565b50565b60007f780e9d63000000000000000000000000000000000000000000000000000000007bffffffffffffffffffffffffffffffffffffffffffffffffffffffff1916827bffffffffffffffffffffffffffffffffffffffffffffffffffffffff19161480611537575061153682611df9565b5b9050919050565b60008073ffffffffffffffffffffffffffffffffffffffff166002600084815260200190815260200160002060009054906101000a900473ffffffffffffffffffffffffffffffffffffffff1673ffffffffffffffffffffffffffffffffffffffff1614159050919050565b600033905090565b816004600083815260200190815260200160002060006101000a81548173ffffffffffffffffffffffffffffffffffffffff021916908373ffffffffffffffffffffffffffffffffffffffff160217905550808273ffffffffffffffffffffffffffffffffffffffff1661162583610d3f565b73ffffffffffffffffffffffffffffffffffffffff167f8c5be1e5ebec7d5bd14f71427d1e84f3dd0314c0f7b2291e5b200ac8c7c3b92560405160405180910390a45050565b60006116768261153e565b6116b5576040517f08c379a00000000000000000000000000000000000000000000000000000000081526004016116ac90613398565b60405180910390fd5b60006116c083610d3f565b90508073ffffffffffffffffffffffffffffffffffffffff168473ffffffffffffffffffffffffffffffffffffffff16148061170257506117018185611338565b5b8061174057508373ffffffffffffffffffffffffffffffffffffffff16611728846105e9565b73ffffffffffffffffffffffffffffffffffffffff16145b91505092915050565b8273ffffffffffffffffffffffffffffffffffffffff1661176982610d3f565b73ffffffffffffffffffffffffffffffffffffffff16146117bf576040517f08c379a00000000000000000000000000000000000000000000000000000000081526004016117b690613318565b60405180910390fd5b600073ffffffffffffffffffffffffffffffffffffffff168273ffffffffffffffffffffffffffffffffffffffff16141561182f576040517f08c379a000000000000000000000000000000000000000000000000000000000815260040161182690613358565b60405180910390fd5b61183a838383611edb565b6118456000826115b2565b6001600360008573ffffffffffffffffffffffffffffffffffffffff1673ffffffffffffffffffffffffffffffffffffffff16815260200190815260200160002060008282546118959190613684565b925050819055506001600360008473ffffffffffffffffffffffffffffffffffffffff1673ffffffffffffffffffffffffffffffffffffffff16815260200190815260200160002060008282546118ec91906135fd565b92505081905550816002600083815260200190815260200160002060006101000a81548173ffffffffffffffffffffffffffffffffffffffff021916908373ffffffffffffffffffffffffffffffffffffffff160217905550808273ffffffffffffffffffffffffffffffffffffffff168473ffffffffffffffffffffffffffffffffffffffff167fddf252ad1be2c89b69c2b068fc378daa952ba7f163c4a11628f55a4df523b3ef60405160405180910390a46119ab838383611f59565b505050565b6000600a60009054906101000a900473ffffffffffffffffffffffffffffffffffffffff16905081600a60006101000a81548173ffffffffffffffffffffffffffffffffffffffff021916908373ffffffffffffffffffffffffffffffffffffffff1602179055508173ffffffffffffffffffffffffffffffffffffffff168173ffffffffffffffffffffffffffffffffffffffff167f8be0079c531659141344cd1fd0a4f28419497f9722a3daafe3b4186f6b6457e060405160405180910390a35050565b6001816000016000828254019250508190555050565b600081600001549050919050565b611ab4828260405180602001604052806000815250611f5e565b5050565b8173ffffffffffffffffffffffffffffffffffffffff168373ffffffffffffffffffffffffffffffffffffffff161415611b27576040517f08c379a0000000000000000000000000000000000000000000000000000000008152600401611b1e90613378565b60405180910390fd5b80600560008573ffffffffffffffffffffffffffffffffffffffff1673ffffffffffffffffffffffffffffffffffffffff16815260200190815260200160002060008473ffffffffffffffffffffffffffffffffffffffff1673ffffffffffffffffffffffffffffffffffffffff16815260200190815260200160002060006101000a81548160ff0219169083151502179055508173ffffffffffffffffffffffffffffffffffffffff168373ffffffffffffffffffffffffffffffffffffffff167f17307eab39ab6107e8899845ad3d59bd9653f200f220920489ca2b5937696c3183604051611c18919061319d565b60405180910390a3505050565b611c30848484611749565b611c3c84848484611fb9565b611c7b576040517f08c379a0000000000000000000000000000000000000000000000000000000008152600401611c72906132d8565b60405180910390fd5b50505050565b606060405180602001604052806000815250905090565b60606000821415611ce0576040518060400160405280600181526020017f30000000000000000000000000000000000000000000000000000000000000008152509050611df4565b600082905060005b60008214611d12578080611cfb906137d1565b915050600a82611d0b9190613653565b9150611ce8565b60008167ffffffffffffffff811115611d2e57611d2d613936565b5b6040519080825280601f01601f191660200182016040528015611d605781602001600182028036833780820191505090505b5090505b60008514611ded57600182611d799190613684565b9150600a85611d88919061381a565b6030611d9491906135fd565b60f81b818381518110611daa57611da9613907565b5b60200101907effffffffffffffffffffffffffffffffffffffffffffffffffffffffffffff1916908160001a905350600a85611de69190613653565b9450611d64565b8093505050505b919050565b60007f80ac58cd000000000000000000000000000000000000000000000000000000007bffffffffffffffffffffffffffffffffffffffffffffffffffffffff1916827bffffffffffffffffffffffffffffffffffffffffffffffffffffffff19161480611ec457507f5b5e139f000000000000000000000000000000000000000000000000000000007bffffffffffffffffffffffffffffffffffffffffffffffffffffffff1916827bffffffffffffffffffffffffffffffffffffffffffffffffffffffff1916145b80611ed45750611ed382612150565b5b9050919050565b8173ffffffffffffffffffffffffffffffffffffffff168373ffffffffffffffffffffffffffffffffffffffff1614611f49576040517f08c379a0000000000000000000000000000000000000000000000000000000008152600401611f4090613298565b60405180910390fd5b611f548383836121ba565b505050565b505050565b611f6883836122ce565b611f756000848484611fb9565b611fb4576040517f08c379a0000000000000000000000000000000000000000000000000000000008152600401611fab906132d8565b60405180910390fd5b505050565b6000611fda8473ffffffffffffffffffffffffffffffffffffffff166124a8565b15612143578373ffffffffffffffffffffffffffffffffffffffff1663150b7a026120036115aa565b8786866040518563ffffffff1660e01b81526004016120259493929190613151565b602060405180830381600087803b15801561203f57600080fd5b505af192505050801561207057506040513d601f19601f8201168201806040525081019061206d9190612bb2565b60015b6120f3573d80600081146120a0576040519150601f19603f3d011682016040523d82523d6000602084013e6120a5565b606091505b506000815114156120eb576040517f08c379a00000000000000000000000000000000000000000000000000000000081526004016120e2906132d8565b60405180910390fd5b805181602001fd5b63150b7a0260e01b7bffffffffffffffffffffffffffffffffffffffffffffffffffffffff1916817bffffffffffffffffffffffffffffffffffffffffffffffffffffffff191614915050612148565b600190505b949350505050565b60007f01ffc9a7000000000000000000000000000000000000000000000000000000007bffffffffffffffffffffffffffffffffffffffffffffffffffffffff1916827bffffffffffffffffffffffffffffffffffffffffffffffffffffffff1916149050919050565b6121c58383836124cb565b600073ffffffffffffffffffffffffffffffffffffffff168373ffffffffffffffffffffffffffffffffffffffff16141561220857612203816124d0565b612247565b8173ffffffffffffffffffffffffffffffffffffffff168373ffffffffffffffffffffffffffffffffffffffff1614612246576122458382612519565b5b5b600073ffffffffffffffffffffffffffffffffffffffff168273ffffffffffffffffffffffffffffffffffffffff16141561228a5761228581612686565b6122c9565b8273ffffffffffffffffffffffffffffffffffffffff168273ffffffffffffffffffffffffffffffffffffffff16146122c8576122c78282612757565b5b5b505050565b600073ffffffffffffffffffffffffffffffffffffffff168273ffffffffffffffffffffffffffffffffffffffff16141561233e576040517f08c379a000000000000000000000000000000000000000000000000000000000815260040161233590613438565b60405180910390fd5b6123478161153e565b15612387576040517f08c379a000000000000000000000000000000000000000000000000000000000815260040161237e90613338565b60405180910390fd5b61239360008383611edb565b6001600360008473ffffffffffffffffffffffffffffffffffffffff1673ffffffffffffffffffffffffffffffffffffffff16815260200190815260200160002060008282546123e391906135fd565b92505081905550816002600083815260200190815260200160002060006101000a81548173ffffffffffffffffffffffffffffffffffffffff021916908373ffffffffffffffffffffffffffffffffffffffff160217905550808273ffffffffffffffffffffffffffffffffffffffff16600073ffffffffffffffffffffffffffffffffffffffff167fddf252ad1be2c89b69c2b068fc378daa952ba7f163c4a11628f55a4df523b3ef60405160405180910390a46124a460008383611f59565b5050565b6000808273ffffffffffffffffffffffffffffffffffffffff163b119050919050565b505050565b6008805490506009600083815260200190815260200160002081905550600881908060018154018082558091505060019003906000526020600020016000909190919091505550565b6000600161252684610df1565b6125309190613684565b9050600060076000848152602001908152602001600020549050818114612615576000600660008673ffffffffffffffffffffffffffffffffffffffff1673ffffffffffffffffffffffffffffffffffffffff168152602001908152602001600020600084815260200190815260200160002054905080600660008773ffffffffffffffffffffffffffffffffffffffff1673ffffffffffffffffffffffffffffffffffffffff168152602001908152602001600020600084815260200190815260200160002081905550816007600083815260200190815260200160002081905550505b6007600084815260200190815260200160002060009055600660008573ffffffffffffffffffffffffffffffffffffffff1673ffffffffffffffffffffffffffffffffffffffff16815260200190815260200160002060008381526020019081526020016000206000905550505050565b6000600160088054905061269a9190613684565b90506000600960008481526020019081526020016000205490506000600883815481106126ca576126c9613907565b5b9060005260206000200154905080600883815481106126ec576126eb613907565b5b90600052602060002001819055508160096000838152602001908152602001600020819055506009600085815260200190815260200160002060009055600880548061273b5761273a6138d8565b5b6001900381819060005260206000200160009055905550505050565b600061276283610df1565b905081600660008573ffffffffffffffffffffffffffffffffffffffff1673ffffffffffffffffffffffffffffffffffffffff168152602001908152602001600020600083815260200190815260200160002081905550806007600084815260200190815260200160002081905550505050565b8280546127e29061376e565b90600052602060002090601f016020900481019282612804576000855561284b565b82601f1061281d57805160ff191683800117855561284b565b8280016001018555821561284b579182015b8281111561284a57825182559160200191906001019061282f565b5b509050612858919061285c565b5090565b5b8082111561287557600081600090555060010161285d565b5090565b600061288c61288784613558565b613533565b9050828152602081018484840111156128a8576128a761396a565b5b6128b384828561372c565b509392505050565b60006128ce6128c984613589565b613533565b9050828152602081018484840111156128ea576128e961396a565b5b6128f584828561372c565b509392505050565b60008135905061290c81613ed2565b92915050565b60008135905061292181613ee9565b92915050565b60008135905061293681613f00565b92915050565b60008151905061294b81613f00565b92915050565b600082601f83011261296657612965613965565b5b8135612976848260208601612879565b91505092915050565b600082601f83011261299457612993613965565b5b81356129a48482602086016128bb565b91505092915050565b6000813590506129bc81613f17565b92915050565b6000602082840312156129d8576129d7613974565b5b60006129e6848285016128fd565b91505092915050565b60008060408385031215612a0657612a05613974565b5b6000612a14858286016128fd565b9250506020612a25858286016128fd565b9150509250929050565b600080600060608486031215612a4857612a47613974565b5b6000612a56868287016128fd565b9350506020612a67868287016128fd565b9250506040612a78868287016129ad565b9150509250925092565b60008060008060808587031215612a9c57612a9b613974565b5b6000612aaa878288016128fd565b9450506020612abb878288016128fd565b9350506040612acc878288016129ad565b925050606085013567ffffffffffffffff811115612aed57612aec61396f565b5b612af987828801612951565b91505092959194509250565b60008060408385031215612b1c57612b1b613974565b5b6000612b2a858286016128fd565b9250506020612b3b85828601612912565b9150509250929050565b60008060408385031215612b5c57612b5b613974565b5b6000612b6a858286016128fd565b9250506020612b7b858286016129ad565b9150509250929050565b600060208284031215612b9b57612b9a613974565b5b6000612ba984828501612927565b91505092915050565b600060208284031215612bc857612bc7613974565b5b6000612bd68482850161293c565b91505092915050565b600080600080600080600080610100898b031215612c0057612bff613974565b5b600089013567ffffffffffffffff811115612c1e57612c1d61396f565b5b612c2a8b828c0161297f565b985050602089013567ffffffffffffffff811115612c4b57612c4a61396f565b5b612c578b828c0161297f565b975050604089013567ffffffffffffffff811115612c7857612c7761396f565b5b612c848b828c0161297f565b965050606089013567ffffffffffffffff811115612ca557612ca461396f565b5b612cb18b828c0161297f565b955050608089013567ffffffffffffffff811115612cd257612cd161396f565b5b612cde8b828c0161297f565b94505060a089013567ffffffffffffffff811115612cff57612cfe61396f565b5b612d0b8b828c0161297f565b93505060c0612d1c8b828c016129ad565b92505060e089013567ffffffffffffffff811115612d3d57612d3c61396f565b5b612d498b828c0161297f565b9150509295985092959890939650565b600060208284031215612d6f57612d6e613974565b5b6000612d7d848285016129ad565b91505092915050565b612d8f816136b8565b82525050565b612d9e816136ca565b82525050565b6000612daf826135ba565b612db981856135d0565b9350612dc981856020860161373b565b612dd281613979565b840191505092915050565b6000612de8826135c5565b612df281856135e1565b9350612e0281856020860161373b565b612e0b81613979565b840191505092915050565b6000612e21826135c5565b612e2b81856135f2565b9350612e3b81856020860161373b565b80840191505092915050565b6000612e546016836135e1565b9150612e5f8261398a565b602082019050919050565b6000612e77602b836135e1565b9150612e82826139b3565b604082019050919050565b6000612e9a6032836135e1565b9150612ea582613a02565b604082019050919050565b6000612ebd6026836135e1565b9150612ec882613a51565b604082019050919050565b6000612ee06025836135e1565b9150612eeb82613aa0565b604082019050919050565b6000612f03601c836135e1565b9150612f0e82613aef565b602082019050919050565b6000612f266024836135e1565b9150612f3182613b18565b604082019050919050565b6000612f496019836135e1565b9150612f5482613b67565b602082019050919050565b6000612f6c602c836135e1565b9150612f7782613b90565b604082019050919050565b6000612f8f6038836135e1565b9150612f9a82613bdf565b604082019050919050565b6000612fb26017836135e1565b9150612fbd82613c2e565b602082019050919050565b6000612fd5602a836135e1565b9150612fe082613c57565b604082019050919050565b6000612ff86029836135e1565b915061300382613ca6565b604082019050919050565b600061301b6020836135e1565b915061302682613cf5565b602082019050919050565b600061303e602c836135e1565b915061304982613d1e565b604082019050919050565b60006130616020836135e1565b915061306c82613d6d565b602082019050919050565b6000613084602f836135e1565b915061308f82613d96565b604082019050919050565b60006130a76021836135e1565b91506130b282613de5565b604082019050919050565b60006130ca6031836135e1565b91506130d582613e34565b604082019050919050565b60006130ed602c836135e1565b91506130f882613e83565b604082019050919050565b61310c81613722565b82525050565b600061311e8285612e16565b915061312a8284612e16565b91508190509392505050565b600060208201905061314b6000830184612d86565b92915050565b60006080820190506131666000830187612d86565b6131736020830186612d86565b6131806040830185613103565b81810360608301526131928184612da4565b905095945050505050565b60006020820190506131b26000830184612d95565b92915050565b600060208201905081810360008301526131d28184612ddd565b905092915050565b60006101208201905081810360008301526131f5818c612ddd565b90508181036020830152613209818b612ddd565b9050818103604083015261321d818a612ddd565b905081810360608301526132318189612ddd565b905081810360808301526132458188612ddd565b905081810360a08301526132598187612ddd565b905061326860c0830186613103565b81810360e083015261327a8185612ddd565b905061328a610100830184613103565b9a9950505050505050505050565b600060208201905081810360008301526132b181612e47565b9050919050565b600060208201905081810360008301526132d181612e6a565b9050919050565b600060208201905081810360008301526132f181612e8d565b9050919050565b6000602082019050818103600083015261331181612eb0565b9050919050565b6000602082019050818103600083015261333181612ed3565b9050919050565b6000602082019050818103600083015261335181612ef6565b9050919050565b6000602082019050818103600083015261337181612f19565b9050919050565b6000602082019050818103600083015261339181612f3c565b9050919050565b600060208201905081810360008301526133b181612f5f565b9050919050565b600060208201905081810360008301526133d181612f82565b9050919050565b600060208201905081810360008301526133f181612fa5565b9050919050565b6000602082019050818103600083015261341181612fc8565b9050919050565b6000602082019050818103600083015261343181612feb565b9050919050565b600060208201905081810360008301526134518161300e565b9050919050565b6000602082019050818103600083015261347181613031565b9050919050565b6000602082019050818103600083015261349181613054565b9050919050565b600060208201905081810360008301526134b181613077565b9050919050565b600060208201905081810360008301526134d18161309a565b9050919050565b600060208201905081810360008301526134f1816130bd565b9050919050565b60006020820190508181036000830152613511816130e0565b9050919050565b600060208201905061352d6000830184613103565b92915050565b600061353d61354e565b905061354982826137a0565b919050565b6000604051905090565b600067ffffffffffffffff82111561357357613572613936565b5b61357c82613979565b9050602081019050919050565b600067ffffffffffffffff8211156135a4576135a3613936565b5b6135ad82613979565b9050602081019050919050565b600081519050919050565b600081519050919050565b600082825260208201905092915050565b600082825260208201905092915050565b600081905092915050565b600061360882613722565b915061361383613722565b9250827fffffffffffffffffffffffffffffffffffffffffffffffffffffffffffffffff038211156136485761364761384b565b5b828201905092915050565b600061365e82613722565b915061366983613722565b9250826136795761367861387a565b5b828204905092915050565b600061368f82613722565b915061369a83613722565b9250828210156136ad576136ac61384b565b5b828203905092915050565b60006136c382613702565b9050919050565b60008115159050919050565b60007fffffffff0000000000000000000000000000000000000000000000000000000082169050919050565b600073ffffffffffffffffffffffffffffffffffffffff82169050919050565b6000819050919050565b82818337600083830152505050565b60005b8381101561375957808201518184015260208101905061373e565b83811115613768576000848401525b50505050565b6000600282049050600182168061378657607f821691505b6020821081141561379a576137996138a9565b5b50919050565b6137a982613979565b810181811067ffffffffffffffff821117156137c8576137c7613936565b5b80604052505050565b60006137dc82613722565b91507fffffffffffffffffffffffffffffffffffffffffffffffffffffffffffffffff82141561380f5761380e61384b565b5b600182019050919050565b600061382582613722565b915061383083613722565b9250826138405761383f61387a565b5b828206905092915050565b7f4e487b7100000000000000000000000000000000000000000000000000000000600052601160045260246000fd5b7f4e487b7100000000000000000000000000000000000000000000000000000000600052601260045260246000fd5b7f4e487b7100000000000000000000000000000000000000000000000000000000600052602260045260246000fd5b7f4e487b7100000000000000000000000000000000000000000000000000000000600052603160045260246000fd5b7f4e487b7100000000000000000000000000000000000000000000000000000000600052603260045260246000fd5b7f4e487b7100000000000000000000000000000000000000000000000000000000600052604160045260246000fd5b600080fd5b600080fd5b600080fd5b600080fd5b6000601f19601f8301169050919050565b7f4e6f6e5472616e736665727261626c6520746f6b656e00000000000000000000600082015250565b7f455243373231456e756d657261626c653a206f776e657220696e646578206f7560008201527f74206f6620626f756e6473000000000000000000000000000000000000000000602082015250565b7f4552433732313a207472616e7366657220746f206e6f6e20455243373231526560008201527f63656976657220696d706c656d656e7465720000000000000000000000000000602082015250565b7f4f776e61626c653a206e6577206f776e657220697320746865207a65726f206160008201527f6464726573730000000000000000000000000000000000000000000000000000602082015250565b7f4552433732313a207472616e736665722066726f6d20696e636f72726563742060008201527f6f776e6572000000000000000000000000000000000000000000000000000000602082015250565b7f4552433732313a20746f6b656e20616c7265616479206d696e74656400000000600082015250565b7f4552433732313a207472616e7366657220746f20746865207a65726f2061646460008201527f7265737300000000000000000000000000000000000000000000000000000000602082015250565b7f4552433732313a20617070726f766520746f2063616c6c657200000000000000600082015250565b7f4552433732313a206f70657261746f7220717565727920666f72206e6f6e657860008201527f697374656e7420746f6b656e0000000000000000000000000000000000000000602082015250565b7f4552433732313a20617070726f76652063616c6c6572206973206e6f74206f7760008201527f6e6572206e6f7220617070726f76656420666f7220616c6c0000000000000000602082015250565b7f4e6f7420656e6f756768742065746865722073656e742e000000000000000000600082015250565b7f4552433732313a2062616c616e636520717565727920666f7220746865207a6560008201527f726f206164647265737300000000000000000000000000000000000000000000602082015250565b7f4552433732313a206f776e657220717565727920666f72206e6f6e657869737460008201527f656e7420746f6b656e0000000000000000000000000000000000000000000000602082015250565b7f4552433732313a206d696e7420746f20746865207a65726f2061646472657373600082015250565b7f4552433732313a20617070726f76656420717565727920666f72206e6f6e657860008201527f697374656e7420746f6b656e0000000000000000000000000000000000000000602082015250565b7f4f776e61626c653a2063616c6c6572206973206e6f7420746865206f776e6572600082015250565b7f4552433732314d657461646174613a2055524920717565727920666f72206e6f60008201527f6e6578697374656e7420746f6b656e0000000000000000000000000000000000602082015250565b7f4552433732313a20617070726f76616c20746f2063757272656e74206f776e6560008201527f7200000000000000000000000000000000000000000000000000000000000000602082015250565b7f4552433732313a207472616e736665722063616c6c6572206973206e6f74206f60008201527f776e6572206e6f7220617070726f766564000000000000000000000000000000602082015250565b7f455243373231456e756d657261626c653a20676c6f62616c20696e646578206f60008201527f7574206f6620626f756e64730000000000000000000000000000000000000000602082015250565b613edb816136b8565b8114613ee657600080fd5b50565b613ef2816136ca565b8114613efd57600080fd5b50565b613f09816136d6565b8114613f1457600080fd5b50565b613f2081613722565b8114613f2b57600080fd5b5056fea2646970667358221220bb8a987a1c2c51ff0c7547dc707565e848bbe60762ba2c2a7e9f9e19de6198fa64736f6c63430008070033",
  "immutableReferences": {},
  "source": "// SPDX-License-Identifier: MIT\r\npragma solidity ^0.8.4;\r\n\r\nimport \"@openzeppelin/contracts/token/ERC721/ERC721.sol\";\r\nimport \"@openzeppelin/contracts/token/ERC721/extensions/ERC721Enumerable.sol\";\r\nimport \"@openzeppelin/contracts/access/Ownable.sol\";\r\nimport \"@openzeppelin/contracts/utils/Counters.sol\";\r\n\r\ncontract FlightToken is ERC721, ERC721Enumerable, Ownable {\r\n    struct Ticket {\r\n        string customer_name;\r\n        string customer_last_name;\r\n        string departure_city;\r\n        string arrival_city;\r\n        string date_of_purchase;\r\n        string departure_date;\r\n        uint256 price;\r\n        string airplane_code;\r\n        uint256 ticket_code;\r\n    }\r\n\r\n    using Counters for Counters.Counter;\r\n    Ticket[] public tickets;\r\n\r\n    Counters.Counter private _tokenIdCounter;\r\n\r\n    constructor() ERC721(\"FlightToken\", \"FLT\") {}\r\n\r\n    function safeMint(\r\n        string memory _customer_name,\r\n        string memory _customer_last_name,\r\n        string memory _departure_city,\r\n        string memory _arrival_city,\r\n        string memory _date_of_purchase,\r\n        string memory _departure_date,\r\n        uint256 _price,\r\n        string memory _airplane_code\r\n    ) public payable returns (uint256) {\r\n        require(msg.value >= 1 ether, \"Not enought ether sent.\");\r\n        _tokenIdCounter.increment();\r\n\r\n        Ticket memory new_ticket = Ticket({\r\n            customer_name: _customer_name,\r\n            customer_last_name: _customer_last_name,\r\n            departure_city: _departure_city,\r\n            arrival_city: _arrival_city,\r\n            date_of_purchase: _date_of_purchase,\r\n            departure_date: _departure_date,\r\n            price: _price,\r\n            airplane_code: _airplane_code,\r\n            ticket_code: _tokenIdCounter.current()\r\n        });\r\n        tickets.push(new_ticket);\r\n        _safeMint(msg.sender, _tokenIdCounter.current());\r\n        payable(owner()).transfer(address(this).balance);\r\n        return _tokenIdCounter.current();\r\n    }\r\n\r\n    function _beforeTokenTransfer(\r\n        address from,\r\n        address to,\r\n        uint256 tokenId\r\n    ) internal override(ERC721, ERC721Enumerable) {\r\n        require(from == to, \"NonTransferrable token\");\r\n        super._beforeTokenTransfer(from, to, tokenId);\r\n    }\r\n\r\n    function supportsInterface(bytes4 interfaceId)\r\n        public\r\n        view\r\n        override(ERC721, ERC721Enumerable)\r\n        returns (bool)\r\n    {\r\n        return super.supportsInterface(interfaceId);\r\n    }\r\n}\r\n",
  "sourcePath": "C:\\Users\\gf19\\Desktop\\start2impact\\5 - smart contract\\progetto\\finito\\fly_company\\smart_contract\\contracts\\FlightToken.sol",
  "compiler": {
    "name": "solc",
    "version": "0.8.7+commit.e28d00a7.Emscripten.clang"
  },
  "schemaVersion": "3.4.7",
  "updatedAt": "2022-05-31T15:59:30.847Z",
  "networkType": "ethereum",
  "devdoc": {
    "kind": "dev",
    "methods": {
      "approve(address,uint256)": {
        "details": "See {IERC721-approve}."
      },
      "balanceOf(address)": {
        "details": "See {IERC721-balanceOf}."
      },
      "getApproved(uint256)": {
        "details": "See {IERC721-getApproved}."
      },
      "isApprovedForAll(address,address)": {
        "details": "See {IERC721-isApprovedForAll}."
      },
      "name()": {
        "details": "See {IERC721Metadata-name}."
      },
      "owner()": {
        "details": "Returns the address of the current owner."
      },
      "ownerOf(uint256)": {
        "details": "See {IERC721-ownerOf}."
      },
      "renounceOwnership()": {
        "details": "Leaves the contract without owner. It will not be possible to call `onlyOwner` functions anymore. Can only be called by the current owner. NOTE: Renouncing ownership will leave the contract without an owner, thereby removing any functionality that is only available to the owner."
      },
      "safeTransferFrom(address,address,uint256)": {
        "details": "See {IERC721-safeTransferFrom}."
      },
      "safeTransferFrom(address,address,uint256,bytes)": {
        "details": "See {IERC721-safeTransferFrom}."
      },
      "setApprovalForAll(address,bool)": {
        "details": "See {IERC721-setApprovalForAll}."
      },
      "symbol()": {
        "details": "See {IERC721Metadata-symbol}."
      },
      "tokenByIndex(uint256)": {
        "details": "See {IERC721Enumerable-tokenByIndex}."
      },
      "tokenOfOwnerByIndex(address,uint256)": {
        "details": "See {IERC721Enumerable-tokenOfOwnerByIndex}."
      },
      "tokenURI(uint256)": {
        "details": "See {IERC721Metadata-tokenURI}."
      },
      "totalSupply()": {
        "details": "See {IERC721Enumerable-totalSupply}."
      },
      "transferFrom(address,address,uint256)": {
        "details": "See {IERC721-transferFrom}."
      },
      "transferOwnership(address)": {
        "details": "Transfers ownership of the contract to a new account (`newOwner`). Can only be called by the current owner."
      }
    },
    "version": 1
  },
  "userdoc": {
    "kind": "user",
    "methods": {},
    "version": 1
  }
}