{
  "contractName": "FlightRomeNYNFT",
  "abi": [
    {
      "inputs": [],
      "stateMutability": "nonpayable",
      "type": "constructor"
    },
    {
      "anonymous": false,
      "inputs": [
        {
          "indexed": true,
          "internalType": "address",
          "name": "owner",
          "type": "address"
        },
        {
          "indexed": true,
          "internalType": "address",
          "name": "approved",
          "type": "address"
        },
        {
          "indexed": true,
          "internalType": "uint256",
          "name": "tokenId",
          "type": "uint256"
        }
      ],
      "name": "Approval",
      "type": "event"
    },
    {
      "anonymous": false,
      "inputs": [
        {
          "indexed": true,
          "internalType": "address",
          "name": "owner",
          "type": "address"
        },
        {
          "indexed": true,
          "internalType": "address",
          "name": "operator",
          "type": "address"
        },
        {
          "indexed": false,
          "internalType": "bool",
          "name": "approved",
          "type": "bool"
        }
      ],
      "name": "ApprovalForAll",
      "type": "event"
    },
    {
      "anonymous": false,
      "inputs": [
        {
          "indexed": true,
          "internalType": "address",
          "name": "previousOwner",
          "type": "address"
        },
        {
          "indexed": true,
          "internalType": "address",
          "name": "newOwner",
          "type": "address"
        }
      ],
      "name": "OwnershipTransferred",
      "type": "event"
    },
    {
      "anonymous": false,
      "inputs": [
        {
          "indexed": false,
          "internalType": "address",
          "name": "_from",
          "type": "address"
        },
        {
          "indexed": false,
          "internalType": "address",
          "name": "_to",
          "type": "address"
        },
        {
          "indexed": false,
          "internalType": "uint256",
          "name": "_id",
          "type": "uint256"
        }
      ],
      "name": "TicketBought",
      "type": "event"
    },
    {
      "anonymous": false,
      "inputs": [
        {
          "indexed": true,
          "internalType": "address",
          "name": "from",
          "type": "address"
        },
        {
          "indexed": true,
          "internalType": "address",
          "name": "to",
          "type": "address"
        },
        {
          "indexed": true,
          "internalType": "uint256",
          "name": "tokenId",
          "type": "uint256"
        }
      ],
      "name": "Transfer",
      "type": "event"
    },
    {
      "inputs": [
        {
          "internalType": "address",
          "name": "to",
          "type": "address"
        },
        {
          "internalType": "uint256",
          "name": "tokenId",
          "type": "uint256"
        }
      ],
      "name": "approve",
      "outputs": [],
      "stateMutability": "nonpayable",
      "type": "function"
    },
    {
      "inputs": [
        {
          "internalType": "address",
          "name": "owner",
          "type": "address"
        }
      ],
      "name": "balanceOf",
      "outputs": [
        {
          "internalType": "uint256",
          "name": "",
          "type": "uint256"
        }
      ],
      "stateMutability": "view",
      "type": "function",
      "constant": true
    },
    {
      "inputs": [
        {
          "internalType": "uint256",
          "name": "tokenId",
          "type": "uint256"
        }
      ],
      "name": "getApproved",
      "outputs": [
        {
          "internalType": "address",
          "name": "",
          "type": "address"
        }
      ],
      "stateMutability": "view",
      "type": "function",
      "constant": true
    },
    {
      "inputs": [
        {
          "internalType": "address",
          "name": "owner",
          "type": "address"
        },
        {
          "internalType": "address",
          "name": "operator",
          "type": "address"
        }
      ],
      "name": "isApprovedForAll",
      "outputs": [
        {
          "internalType": "bool",
          "name": "",
          "type": "bool"
        }
      ],
      "stateMutability": "view",
      "type": "function",
      "constant": true
    },
    {
      "inputs": [],
      "name": "maxSupply",
      "outputs": [
        {
          "internalType": "uint256",
          "name": "",
          "type": "uint256"
        }
      ],
      "stateMutability": "view",
      "type": "function",
      "constant": true
    },
    {
      "inputs": [],
      "name": "name",
      "outputs": [
        {
          "internalType": "string",
          "name": "",
          "type": "string"
        }
      ],
      "stateMutability": "view",
      "type": "function",
      "constant": true
    },
    {
      "inputs": [],
      "name": "owner",
      "outputs": [
        {
          "internalType": "address",
          "name": "",
          "type": "address"
        }
      ],
      "stateMutability": "view",
      "type": "function",
      "constant": true
    },
    {
      "inputs": [
        {
          "internalType": "uint256",
          "name": "tokenId",
          "type": "uint256"
        }
      ],
      "name": "ownerOf",
      "outputs": [
        {
          "internalType": "address",
          "name": "",
          "type": "address"
        }
      ],
      "stateMutability": "view",
      "type": "function",
      "constant": true
    },
    {
      "inputs": [],
      "name": "renounceOwnership",
      "outputs": [],
      "stateMutability": "nonpayable",
      "type": "function"
    },
    {
      "inputs": [
        {
          "internalType": "address",
          "name": "from",
          "type": "address"
        },
        {
          "internalType": "address",
          "name": "to",
          "type": "address"
        },
        {
          "internalType": "uint256",
          "name": "tokenId",
          "type": "uint256"
        }
      ],
      "name": "safeTransferFrom",
      "outputs": [],
      "stateMutability": "nonpayable",
      "type": "function"
    },
    {
      "inputs": [
        {
          "internalType": "address",
          "name": "from",
          "type": "address"
        },
        {
          "internalType": "address",
          "name": "to",
          "type": "address"
        },
        {
          "internalType": "uint256",
          "name": "tokenId",
          "type": "uint256"
        },
        {
          "internalType": "bytes",
          "name": "_data",
          "type": "bytes"
        }
      ],
      "name": "safeTransferFrom",
      "outputs": [],
      "stateMutability": "nonpayable",
      "type": "function"
    },
    {
      "inputs": [
        {
          "internalType": "address",
          "name": "operator",
          "type": "address"
        },
        {
          "internalType": "bool",
          "name": "approved",
          "type": "bool"
        }
      ],
      "name": "setApprovalForAll",
      "outputs": [],
      "stateMutability": "nonpayable",
      "type": "function"
    },
    {
      "inputs": [],
      "name": "symbol",
      "outputs": [
        {
          "internalType": "string",
          "name": "",
          "type": "string"
        }
      ],
      "stateMutability": "view",
      "type": "function",
      "constant": true
    },
    {
      "inputs": [
        {
          "internalType": "uint256",
          "name": "index",
          "type": "uint256"
        }
      ],
      "name": "tokenByIndex",
      "outputs": [
        {
          "internalType": "uint256",
          "name": "",
          "type": "uint256"
        }
      ],
      "stateMutability": "view",
      "type": "function",
      "constant": true
    },
    {
      "inputs": [
        {
          "internalType": "address",
          "name": "owner",
          "type": "address"
        },
        {
          "internalType": "uint256",
          "name": "index",
          "type": "uint256"
        }
      ],
      "name": "tokenOfOwnerByIndex",
      "outputs": [
        {
          "internalType": "uint256",
          "name": "",
          "type": "uint256"
        }
      ],
      "stateMutability": "view",
      "type": "function",
      "constant": true
    },
    {
      "inputs": [
        {
          "internalType": "uint256",
          "name": "tokenId",
          "type": "uint256"
        }
      ],
      "name": "tokenURI",
      "outputs": [
        {
          "internalType": "string",
          "name": "",
          "type": "string"
        }
      ],
      "stateMutability": "view",
      "type": "function",
      "constant": true
    },
    {
      "inputs": [],
      "name": "totalSupply",
      "outputs": [
        {
          "internalType": "uint256",
          "name": "",
          "type": "uint256"
        }
      ],
      "stateMutability": "view",
      "type": "function",
      "constant": true
    },
    {
      "inputs": [
        {
          "internalType": "address",
          "name": "from",
          "type": "address"
        },
        {
          "internalType": "address",
          "name": "to",
          "type": "address"
        },
        {
          "internalType": "uint256",
          "name": "tokenId",
          "type": "uint256"
        }
      ],
      "name": "transferFrom",
      "outputs": [],
      "stateMutability": "nonpayable",
      "type": "function"
    },
    {
      "inputs": [
        {
          "internalType": "address",
          "name": "newOwner",
          "type": "address"
        }
      ],
      "name": "transferOwnership",
      "outputs": [],
      "stateMutability": "nonpayable",
      "type": "function"
    },
    {
      "inputs": [],
      "name": "safeMint",
      "outputs": [
        {
          "internalType": "uint256",
          "name": "",
          "type": "uint256"
        }
      ],
      "stateMutability": "payable",
      "type": "function",
      "payable": true
    },
    {
      "inputs": [
        {
          "internalType": "bytes4",
          "name": "interfaceId",
          "type": "bytes4"
        }
      ],
      "name": "supportsInterface",
      "outputs": [
        {
          "internalType": "bool",
          "name": "",
          "type": "bool"
        }
      ],
      "stateMutability": "view",
      "type": "function",
      "constant": true
    },
    {
      "inputs": [],
      "name": "returnLastId",
      "outputs": [
        {
          "internalType": "uint256",
          "name": "",
          "type": "uint256"
        }
      ],
      "stateMutability": "view",
      "type": "function",
      "constant": true
    }
  ],
  "bytecode": "0x60806040523480156200001157600080fd5b506040518060400160405280600f81526020017f466c69676874526f6d654e594e465400000000000000000000000000000000008152506040518060400160405280600381526020017f46524d0000000000000000000000000000000000000000000000000000000000815250816000908051906020019062000096929190620001a6565b508060019080519060200190620000af929190620001a6565b505050620000d2620000c6620000d860201b60201c565b620000e060201b60201c565b620002bb565b600033905090565b6000600a60009054906101000a900473ffffffffffffffffffffffffffffffffffffffff16905081600a60006101000a81548173ffffffffffffffffffffffffffffffffffffffff021916908373ffffffffffffffffffffffffffffffffffffffff1602179055508173ffffffffffffffffffffffffffffffffffffffff168173ffffffffffffffffffffffffffffffffffffffff167f8be0079c531659141344cd1fd0a4f28419497f9722a3daafe3b4186f6b6457e060405160405180910390a35050565b828054620001b49062000256565b90600052602060002090601f016020900481019282620001d8576000855562000224565b82601f10620001f357805160ff191683800117855562000224565b8280016001018555821562000224579182015b828111156200022357825182559160200191906001019062000206565b5b50905062000233919062000237565b5090565b5b808211156200025257600081600090555060010162000238565b5090565b600060028204905060018216806200026f57607f821691505b602082108114156200028657620002856200028c565b5b50919050565b7f4e487b7100000000000000000000000000000000000000000000000000000000600052602260045260246000fd5b6136de80620002cb6000396000f3fe6080604052600436106101355760003560e01c806370a08231116100ab578063b88d4fde1161006f578063b88d4fde1461042d578063c6a2526d14610456578063c87b56dd14610481578063d5abeb01146104be578063e985e9c5146104e9578063f2fde38b1461052657610135565b806370a082311461035a578063715018a6146103975780638da5cb5b146103ae57806395d89b41146103d9578063a22cb4651461040457610135565b806323b872dd116100fd57806323b872dd146102335780632f745c591461025c57806342842e0e146102995780634f6ccce7146102c25780636352211e146102ff5780636871ee401461033c57610135565b806301ffc9a71461013a57806306fdde0314610177578063081812fc146101a2578063095ea7b3146101df57806318160ddd14610208575b600080fd5b34801561014657600080fd5b50610161600480360381019061015c9190612531565b61054f565b60405161016e9190612a06565b60405180910390f35b34801561018357600080fd5b5061018c610561565b6040516101999190612a21565b60405180910390f35b3480156101ae57600080fd5b506101c960048036038101906101c4919061258b565b6105f3565b6040516101d69190612968565b60405180910390f35b3480156101eb57600080fd5b50610206600480360381019061020191906124f1565b610678565b005b34801561021457600080fd5b5061021d610790565b60405161022a9190612cc3565b60405180910390f35b34801561023f57600080fd5b5061025a600480360381019061025591906123db565b61079d565b005b34801561026857600080fd5b50610283600480360381019061027e91906124f1565b6107fd565b6040516102909190612cc3565b60405180910390f35b3480156102a557600080fd5b506102c060048036038101906102bb91906123db565b6108a2565b005b3480156102ce57600080fd5b506102e960048036038101906102e4919061258b565b6108c2565b6040516102f69190612cc3565b60405180910390f35b34801561030b57600080fd5b506103266004803603810190610321919061258b565b610933565b6040516103339190612968565b60405180910390f35b6103446109e5565b6040516103519190612cc3565b60405180910390f35b34801561036657600080fd5b50610381600480360381019061037c919061236e565b610b34565b60405161038e9190612cc3565b60405180910390f35b3480156103a357600080fd5b506103ac610bec565b005b3480156103ba57600080fd5b506103c3610c74565b6040516103d09190612968565b60405180910390f35b3480156103e557600080fd5b506103ee610c9e565b6040516103fb9190612a21565b60405180910390f35b34801561041057600080fd5b5061042b600480360381019061042691906124b1565b610d30565b005b34801561043957600080fd5b50610454600480360381019061044f919061242e565b610d46565b005b34801561046257600080fd5b5061046b610da8565b6040516104789190612cc3565b60405180910390f35b34801561048d57600080fd5b506104a860048036038101906104a3919061258b565b610db9565b6040516104b59190612a21565b60405180910390f35b3480156104ca57600080fd5b506104d3610e60565b6040516104e09190612cc3565b60405180910390f35b3480156104f557600080fd5b50610510600480360381019061050b919061239b565b610e65565b60405161051d9190612a06565b60405180910390f35b34801561053257600080fd5b5061054d6004803603810190610548919061236e565b610ef9565b005b600061055a82610ff1565b9050919050565b60606000805461057090612ee8565b80601f016020809104026020016040519081016040528092919081815260200182805461059c90612ee8565b80156105e95780601f106105be576101008083540402835291602001916105e9565b820191906000526020600020905b8154815290600101906020018083116105cc57829003601f168201915b5050505050905090565b60006105fe8261106b565b61063d576040517f08c379a000000000000000000000000000000000000000000000000000000000815260040161063490612be3565b60405180910390fd5b6004600083815260200190815260200160002060009054906101000a900473ffffffffffffffffffffffffffffffffffffffff169050919050565b600061068382610933565b90508073ffffffffffffffffffffffffffffffffffffffff168373ffffffffffffffffffffffffffffffffffffffff1614156106f4576040517f08c379a00000000000000000000000000000000000000000000000000000000081526004016106eb90612c63565b60405180910390fd5b8073ffffffffffffffffffffffffffffffffffffffff166107136110d7565b73ffffffffffffffffffffffffffffffffffffffff16148061074257506107418161073c6110d7565b610e65565b5b610781576040517f08c379a000000000000000000000000000000000000000000000000000000000815260040161077890612b43565b60405180910390fd5b61078b83836110df565b505050565b6000600880549050905090565b6107ae6107a86110d7565b82611198565b6107ed576040517f08c379a00000000000000000000000000000000000000000000000000000000081526004016107e490612c83565b60405180910390fd5b6107f8838383611276565b505050565b600061080883610b34565b8210610849576040517f08c379a000000000000000000000000000000000000000000000000000000000815260040161084090612a43565b60405180910390fd5b600660008473ffffffffffffffffffffffffffffffffffffffff1673ffffffffffffffffffffffffffffffffffffffff168152602001908152602001600020600083815260200190815260200160002054905092915050565b6108bd83838360405180602001604052806000815250610d46565b505050565b60006108cc610790565b821061090d576040517f08c379a000000000000000000000000000000000000000000000000000000000815260040161090490612ca3565b60405180910390fd5b6008828154811061092157610920613081565b5b90600052602060002001549050919050565b6000806002600084815260200190815260200160002060009054906101000a900473ffffffffffffffffffffffffffffffffffffffff169050600073ffffffffffffffffffffffffffffffffffffffff168173ffffffffffffffffffffffffffffffffffffffff1614156109dc576040517f08c379a00000000000000000000000000000000000000000000000000000000081526004016109d390612ba3565b60405180910390fd5b80915050919050565b600060646109f1610790565b10610a31576040517f08c379a0000000000000000000000000000000000000000000000000000000008152600401610a2890612c23565b60405180910390fd5b670de0b6b3a76400003414610a7b576040517f08c379a0000000000000000000000000000000000000000000000000000000008152600401610a7290612b63565b60405180910390fd5b610a85600b6114dd565b6000610a91600b6114f3565b9050610a9d3382611501565b610aa5610c74565b73ffffffffffffffffffffffffffffffffffffffff166108fc349081150290604051600060405180830381858888f19350505050158015610aea573d6000803e3d6000fd5b507f8bca18b5bac1d8ac9aa654d69e8a48c6508e0cf5b6a53ce86584a69326f61ac433610b15610c74565b83604051610b2593929190612983565b60405180910390a18091505090565b60008073ffffffffffffffffffffffffffffffffffffffff168273ffffffffffffffffffffffffffffffffffffffff161415610ba5576040517f08c379a0000000000000000000000000000000000000000000000000000000008152600401610b9c90612b83565b60405180910390fd5b600360008373ffffffffffffffffffffffffffffffffffffffff1673ffffffffffffffffffffffffffffffffffffffff168152602001908152602001600020549050919050565b610bf46110d7565b73ffffffffffffffffffffffffffffffffffffffff16610c12610c74565b73ffffffffffffffffffffffffffffffffffffffff1614610c68576040517f08c379a0000000000000000000000000000000000000000000000000000000008152600401610c5f90612c03565b60405180910390fd5b610c72600061151f565b565b6000600a60009054906101000a900473ffffffffffffffffffffffffffffffffffffffff16905090565b606060018054610cad90612ee8565b80601f0160208091040260200160405190810160405280929190818152602001828054610cd990612ee8565b8015610d265780601f10610cfb57610100808354040283529160200191610d26565b820191906000526020600020905b815481529060010190602001808311610d0957829003601f168201915b5050505050905090565b610d42610d3b6110d7565b83836115e5565b5050565b610d57610d516110d7565b83611198565b610d96576040517f08c379a0000000000000000000000000000000000000000000000000000000008152600401610d8d90612c83565b60405180910390fd5b610da284848484611752565b50505050565b6000610db4600b6114f3565b905090565b6060610dc48261106b565b610e03576040517f08c379a0000000000000000000000000000000000000000000000000000000008152600401610dfa90612c43565b60405180910390fd5b6000610e0d6117ae565b90506000815111610e2d5760405180602001604052806000815250610e58565b80610e37846117c5565b604051602001610e48929190612944565b6040516020818303038152906040525b915050919050565b606481565b6000600560008473ffffffffffffffffffffffffffffffffffffffff1673ffffffffffffffffffffffffffffffffffffffff16815260200190815260200160002060008373ffffffffffffffffffffffffffffffffffffffff1673ffffffffffffffffffffffffffffffffffffffff16815260200190815260200160002060009054906101000a900460ff16905092915050565b610f016110d7565b73ffffffffffffffffffffffffffffffffffffffff16610f1f610c74565b73ffffffffffffffffffffffffffffffffffffffff1614610f75576040517f08c379a0000000000000000000000000000000000000000000000000000000008152600401610f6c90612c03565b60405180910390fd5b600073ffffffffffffffffffffffffffffffffffffffff168173ffffffffffffffffffffffffffffffffffffffff161415610fe5576040517f08c379a0000000000000000000000000000000000000000000000000000000008152600401610fdc90612a83565b60405180910390fd5b610fee8161151f565b50565b60007f780e9d63000000000000000000000000000000000000000000000000000000007bffffffffffffffffffffffffffffffffffffffffffffffffffffffff1916827bffffffffffffffffffffffffffffffffffffffffffffffffffffffff19161480611064575061106382611926565b5b9050919050565b60008073ffffffffffffffffffffffffffffffffffffffff166002600084815260200190815260200160002060009054906101000a900473ffffffffffffffffffffffffffffffffffffffff1673ffffffffffffffffffffffffffffffffffffffff1614159050919050565b600033905090565b816004600083815260200190815260200160002060006101000a81548173ffffffffffffffffffffffffffffffffffffffff021916908373ffffffffffffffffffffffffffffffffffffffff160217905550808273ffffffffffffffffffffffffffffffffffffffff1661115283610933565b73ffffffffffffffffffffffffffffffffffffffff167f8c5be1e5ebec7d5bd14f71427d1e84f3dd0314c0f7b2291e5b200ac8c7c3b92560405160405180910390a45050565b60006111a38261106b565b6111e2576040517f08c379a00000000000000000000000000000000000000000000000000000000081526004016111d990612b23565b60405180910390fd5b60006111ed83610933565b90508073ffffffffffffffffffffffffffffffffffffffff168473ffffffffffffffffffffffffffffffffffffffff16148061122f575061122e8185610e65565b5b8061126d57508373ffffffffffffffffffffffffffffffffffffffff16611255846105f3565b73ffffffffffffffffffffffffffffffffffffffff16145b91505092915050565b8273ffffffffffffffffffffffffffffffffffffffff1661129682610933565b73ffffffffffffffffffffffffffffffffffffffff16146112ec576040517f08c379a00000000000000000000000000000000000000000000000000000000081526004016112e390612aa3565b60405180910390fd5b600073ffffffffffffffffffffffffffffffffffffffff168273ffffffffffffffffffffffffffffffffffffffff16141561135c576040517f08c379a000000000000000000000000000000000000000000000000000000000815260040161135390612ae3565b60405180910390fd5b611367838383611a08565b6113726000826110df565b6001600360008573ffffffffffffffffffffffffffffffffffffffff1673ffffffffffffffffffffffffffffffffffffffff16815260200190815260200160002060008282546113c29190612dfe565b925050819055506001600360008473ffffffffffffffffffffffffffffffffffffffff1673ffffffffffffffffffffffffffffffffffffffff16815260200190815260200160002060008282546114199190612d77565b92505081905550816002600083815260200190815260200160002060006101000a81548173ffffffffffffffffffffffffffffffffffffffff021916908373ffffffffffffffffffffffffffffffffffffffff160217905550808273ffffffffffffffffffffffffffffffffffffffff168473ffffffffffffffffffffffffffffffffffffffff167fddf252ad1be2c89b69c2b068fc378daa952ba7f163c4a11628f55a4df523b3ef60405160405180910390a46114d8838383611a18565b505050565b6001816000016000828254019250508190555050565b600081600001549050919050565b61151b828260405180602001604052806000815250611a1d565b5050565b6000600a60009054906101000a900473ffffffffffffffffffffffffffffffffffffffff16905081600a60006101000a81548173ffffffffffffffffffffffffffffffffffffffff021916908373ffffffffffffffffffffffffffffffffffffffff1602179055508173ffffffffffffffffffffffffffffffffffffffff168173ffffffffffffffffffffffffffffffffffffffff167f8be0079c531659141344cd1fd0a4f28419497f9722a3daafe3b4186f6b6457e060405160405180910390a35050565b8173ffffffffffffffffffffffffffffffffffffffff168373ffffffffffffffffffffffffffffffffffffffff161415611654576040517f08c379a000000000000000000000000000000000000000000000000000000000815260040161164b90612b03565b60405180910390fd5b80600560008573ffffffffffffffffffffffffffffffffffffffff1673ffffffffffffffffffffffffffffffffffffffff16815260200190815260200160002060008473ffffffffffffffffffffffffffffffffffffffff1673ffffffffffffffffffffffffffffffffffffffff16815260200190815260200160002060006101000a81548160ff0219169083151502179055508173ffffffffffffffffffffffffffffffffffffffff168373ffffffffffffffffffffffffffffffffffffffff167f17307eab39ab6107e8899845ad3d59bd9653f200f220920489ca2b5937696c31836040516117459190612a06565b60405180910390a3505050565b61175d848484611276565b61176984848484611a78565b6117a8576040517f08c379a000000000000000000000000000000000000000000000000000000000815260040161179f90612a63565b60405180910390fd5b50505050565b606060405180602001604052806000815250905090565b6060600082141561180d576040518060400160405280600181526020017f30000000000000000000000000000000000000000000000000000000000000008152509050611921565b600082905060005b6000821461183f57808061182890612f4b565b915050600a826118389190612dcd565b9150611815565b60008167ffffffffffffffff81111561185b5761185a6130b0565b5b6040519080825280601f01601f19166020018201604052801561188d5781602001600182028036833780820191505090505b5090505b6000851461191a576001826118a69190612dfe565b9150600a856118b59190612f94565b60306118c19190612d77565b60f81b8183815181106118d7576118d6613081565b5b60200101907effffffffffffffffffffffffffffffffffffffffffffffffffffffffffffff1916908160001a905350600a856119139190612dcd565b9450611891565b8093505050505b919050565b60007f80ac58cd000000000000000000000000000000000000000000000000000000007bffffffffffffffffffffffffffffffffffffffffffffffffffffffff1916827bffffffffffffffffffffffffffffffffffffffffffffffffffffffff191614806119f157507f5b5e139f000000000000000000000000000000000000000000000000000000007bffffffffffffffffffffffffffffffffffffffffffffffffffffffff1916827bffffffffffffffffffffffffffffffffffffffffffffffffffffffff1916145b80611a015750611a0082611c0f565b5b9050919050565b611a13838383611c79565b505050565b505050565b611a278383611d8d565b611a346000848484611a78565b611a73576040517f08c379a0000000000000000000000000000000000000000000000000000000008152600401611a6a90612a63565b60405180910390fd5b505050565b6000611a998473ffffffffffffffffffffffffffffffffffffffff16611f67565b15611c02578373ffffffffffffffffffffffffffffffffffffffff1663150b7a02611ac26110d7565b8786866040518563ffffffff1660e01b8152600401611ae494939291906129ba565b602060405180830381600087803b158015611afe57600080fd5b505af1925050508015611b2f57506040513d601f19601f82011682018060405250810190611b2c919061255e565b60015b611bb2573d8060008114611b5f576040519150601f19603f3d011682016040523d82523d6000602084013e611b64565b606091505b50600081511415611baa576040517f08c379a0000000000000000000000000000000000000000000000000000000008152600401611ba190612a63565b60405180910390fd5b805181602001fd5b63150b7a0260e01b7bffffffffffffffffffffffffffffffffffffffffffffffffffffffff1916817bffffffffffffffffffffffffffffffffffffffffffffffffffffffff191614915050611c07565b600190505b949350505050565b60007f01ffc9a7000000000000000000000000000000000000000000000000000000007bffffffffffffffffffffffffffffffffffffffffffffffffffffffff1916827bffffffffffffffffffffffffffffffffffffffffffffffffffffffff1916149050919050565b611c84838383611f8a565b600073ffffffffffffffffffffffffffffffffffffffff168373ffffffffffffffffffffffffffffffffffffffff161415611cc757611cc281611f8f565b611d06565b8173ffffffffffffffffffffffffffffffffffffffff168373ffffffffffffffffffffffffffffffffffffffff1614611d0557611d048382611fd8565b5b5b600073ffffffffffffffffffffffffffffffffffffffff168273ffffffffffffffffffffffffffffffffffffffff161415611d4957611d4481612145565b611d88565b8273ffffffffffffffffffffffffffffffffffffffff168273ffffffffffffffffffffffffffffffffffffffff1614611d8757611d868282612216565b5b5b505050565b600073ffffffffffffffffffffffffffffffffffffffff168273ffffffffffffffffffffffffffffffffffffffff161415611dfd576040517f08c379a0000000000000000000000000000000000000000000000000000000008152600401611df490612bc3565b60405180910390fd5b611e068161106b565b15611e46576040517f08c379a0000000000000000000000000000000000000000000000000000000008152600401611e3d90612ac3565b60405180910390fd5b611e5260008383611a08565b6001600360008473ffffffffffffffffffffffffffffffffffffffff1673ffffffffffffffffffffffffffffffffffffffff1681526020019081526020016000206000828254611ea29190612d77565b92505081905550816002600083815260200190815260200160002060006101000a81548173ffffffffffffffffffffffffffffffffffffffff021916908373ffffffffffffffffffffffffffffffffffffffff160217905550808273ffffffffffffffffffffffffffffffffffffffff16600073ffffffffffffffffffffffffffffffffffffffff167fddf252ad1be2c89b69c2b068fc378daa952ba7f163c4a11628f55a4df523b3ef60405160405180910390a4611f6360008383611a18565b5050565b6000808273ffffffffffffffffffffffffffffffffffffffff163b119050919050565b505050565b6008805490506009600083815260200190815260200160002081905550600881908060018154018082558091505060019003906000526020600020016000909190919091505550565b60006001611fe584610b34565b611fef9190612dfe565b90506000600760008481526020019081526020016000205490508181146120d4576000600660008673ffffffffffffffffffffffffffffffffffffffff1673ffffffffffffffffffffffffffffffffffffffff168152602001908152602001600020600084815260200190815260200160002054905080600660008773ffffffffffffffffffffffffffffffffffffffff1673ffffffffffffffffffffffffffffffffffffffff168152602001908152602001600020600084815260200190815260200160002081905550816007600083815260200190815260200160002081905550505b6007600084815260200190815260200160002060009055600660008573ffffffffffffffffffffffffffffffffffffffff1673ffffffffffffffffffffffffffffffffffffffff16815260200190815260200160002060008381526020019081526020016000206000905550505050565b600060016008805490506121599190612dfe565b905060006009600084815260200190815260200160002054905060006008838154811061218957612188613081565b5b9060005260206000200154905080600883815481106121ab576121aa613081565b5b9060005260206000200181905550816009600083815260200190815260200160002081905550600960008581526020019081526020016000206000905560088054806121fa576121f9613052565b5b6001900381819060005260206000200160009055905550505050565b600061222183610b34565b905081600660008573ffffffffffffffffffffffffffffffffffffffff1673ffffffffffffffffffffffffffffffffffffffff168152602001908152602001600020600083815260200190815260200160002081905550806007600084815260200190815260200160002081905550505050565b60006122a86122a384612d03565b612cde565b9050828152602081018484840111156122c4576122c36130e4565b5b6122cf848285612ea6565b509392505050565b6000813590506122e68161364c565b92915050565b6000813590506122fb81613663565b92915050565b6000813590506123108161367a565b92915050565b6000815190506123258161367a565b92915050565b600082601f8301126123405761233f6130df565b5b8135612350848260208601612295565b91505092915050565b60008135905061236881613691565b92915050565b600060208284031215612384576123836130ee565b5b6000612392848285016122d7565b91505092915050565b600080604083850312156123b2576123b16130ee565b5b60006123c0858286016122d7565b92505060206123d1858286016122d7565b9150509250929050565b6000806000606084860312156123f4576123f36130ee565b5b6000612402868287016122d7565b9350506020612413868287016122d7565b925050604061242486828701612359565b9150509250925092565b60008060008060808587031215612448576124476130ee565b5b6000612456878288016122d7565b9450506020612467878288016122d7565b935050604061247887828801612359565b925050606085013567ffffffffffffffff811115612499576124986130e9565b5b6124a58782880161232b565b91505092959194509250565b600080604083850312156124c8576124c76130ee565b5b60006124d6858286016122d7565b92505060206124e7858286016122ec565b9150509250929050565b60008060408385031215612508576125076130ee565b5b6000612516858286016122d7565b925050602061252785828601612359565b9150509250929050565b600060208284031215612547576125466130ee565b5b600061255584828501612301565b91505092915050565b600060208284031215612574576125736130ee565b5b600061258284828501612316565b91505092915050565b6000602082840312156125a1576125a06130ee565b5b60006125af84828501612359565b91505092915050565b6125c181612e32565b82525050565b6125d081612e44565b82525050565b60006125e182612d34565b6125eb8185612d4a565b93506125fb818560208601612eb5565b612604816130f3565b840191505092915050565b600061261a82612d3f565b6126248185612d5b565b9350612634818560208601612eb5565b61263d816130f3565b840191505092915050565b600061265382612d3f565b61265d8185612d6c565b935061266d818560208601612eb5565b80840191505092915050565b6000612686602b83612d5b565b915061269182613104565b604082019050919050565b60006126a9603283612d5b565b91506126b482613153565b604082019050919050565b60006126cc602683612d5b565b91506126d7826131a2565b604082019050919050565b60006126ef602583612d5b565b91506126fa826131f1565b604082019050919050565b6000612712601c83612d5b565b915061271d82613240565b602082019050919050565b6000612735602483612d5b565b915061274082613269565b604082019050919050565b6000612758601983612d5b565b9150612763826132b8565b602082019050919050565b600061277b602c83612d5b565b9150612786826132e1565b604082019050919050565b600061279e603883612d5b565b91506127a982613330565b604082019050919050565b60006127c1601783612d5b565b91506127cc8261337f565b602082019050919050565b60006127e4602a83612d5b565b91506127ef826133a8565b604082019050919050565b6000612807602983612d5b565b9150612812826133f7565b604082019050919050565b600061282a602083612d5b565b915061283582613446565b602082019050919050565b600061284d602c83612d5b565b91506128588261346f565b604082019050919050565b6000612870602083612d5b565b915061287b826134be565b602082019050919050565b6000612893601883612d5b565b915061289e826134e7565b602082019050919050565b60006128b6602f83612d5b565b91506128c182613510565b604082019050919050565b60006128d9602183612d5b565b91506128e48261355f565b604082019050919050565b60006128fc603183612d5b565b9150612907826135ae565b604082019050919050565b600061291f602c83612d5b565b915061292a826135fd565b604082019050919050565b61293e81612e9c565b82525050565b60006129508285612648565b915061295c8284612648565b91508190509392505050565b600060208201905061297d60008301846125b8565b92915050565b600060608201905061299860008301866125b8565b6129a560208301856125b8565b6129b26040830184612935565b949350505050565b60006080820190506129cf60008301876125b8565b6129dc60208301866125b8565b6129e96040830185612935565b81810360608301526129fb81846125d6565b905095945050505050565b6000602082019050612a1b60008301846125c7565b92915050565b60006020820190508181036000830152612a3b818461260f565b905092915050565b60006020820190508181036000830152612a5c81612679565b9050919050565b60006020820190508181036000830152612a7c8161269c565b9050919050565b60006020820190508181036000830152612a9c816126bf565b9050919050565b60006020820190508181036000830152612abc816126e2565b9050919050565b60006020820190508181036000830152612adc81612705565b9050919050565b60006020820190508181036000830152612afc81612728565b9050919050565b60006020820190508181036000830152612b1c8161274b565b9050919050565b60006020820190508181036000830152612b3c8161276e565b9050919050565b60006020820190508181036000830152612b5c81612791565b9050919050565b60006020820190508181036000830152612b7c816127b4565b9050919050565b60006020820190508181036000830152612b9c816127d7565b9050919050565b60006020820190508181036000830152612bbc816127fa565b9050919050565b60006020820190508181036000830152612bdc8161281d565b9050919050565b60006020820190508181036000830152612bfc81612840565b9050919050565b60006020820190508181036000830152612c1c81612863565b9050919050565b60006020820190508181036000830152612c3c81612886565b9050919050565b60006020820190508181036000830152612c5c816128a9565b9050919050565b60006020820190508181036000830152612c7c816128cc565b9050919050565b60006020820190508181036000830152612c9c816128ef565b9050919050565b60006020820190508181036000830152612cbc81612912565b9050919050565b6000602082019050612cd86000830184612935565b92915050565b6000612ce8612cf9565b9050612cf48282612f1a565b919050565b6000604051905090565b600067ffffffffffffffff821115612d1e57612d1d6130b0565b5b612d27826130f3565b9050602081019050919050565b600081519050919050565b600081519050919050565b600082825260208201905092915050565b600082825260208201905092915050565b600081905092915050565b6000612d8282612e9c565b9150612d8d83612e9c565b9250827fffffffffffffffffffffffffffffffffffffffffffffffffffffffffffffffff03821115612dc257612dc1612fc5565b5b828201905092915050565b6000612dd882612e9c565b9150612de383612e9c565b925082612df357612df2612ff4565b5b828204905092915050565b6000612e0982612e9c565b9150612e1483612e9c565b925082821015612e2757612e26612fc5565b5b828203905092915050565b6000612e3d82612e7c565b9050919050565b60008115159050919050565b60007fffffffff0000000000000000000000000000000000000000000000000000000082169050919050565b600073ffffffffffffffffffffffffffffffffffffffff82169050919050565b6000819050919050565b82818337600083830152505050565b60005b83811015612ed3578082015181840152602081019050612eb8565b83811115612ee2576000848401525b50505050565b60006002820490506001821680612f0057607f821691505b60208210811415612f1457612f13613023565b5b50919050565b612f23826130f3565b810181811067ffffffffffffffff82111715612f4257612f416130b0565b5b80604052505050565b6000612f5682612e9c565b91507fffffffffffffffffffffffffffffffffffffffffffffffffffffffffffffffff821415612f8957612f88612fc5565b5b600182019050919050565b6000612f9f82612e9c565b9150612faa83612e9c565b925082612fba57612fb9612ff4565b5b828206905092915050565b7f4e487b7100000000000000000000000000000000000000000000000000000000600052601160045260246000fd5b7f4e487b7100000000000000000000000000000000000000000000000000000000600052601260045260246000fd5b7f4e487b7100000000000000000000000000000000000000000000000000000000600052602260045260246000fd5b7f4e487b7100000000000000000000000000000000000000000000000000000000600052603160045260246000fd5b7f4e487b7100000000000000000000000000000000000000000000000000000000600052603260045260246000fd5b7f4e487b7100000000000000000000000000000000000000000000000000000000600052604160045260246000fd5b600080fd5b600080fd5b600080fd5b600080fd5b6000601f19601f8301169050919050565b7f455243373231456e756d657261626c653a206f776e657220696e646578206f7560008201527f74206f6620626f756e6473000000000000000000000000000000000000000000602082015250565b7f4552433732313a207472616e7366657220746f206e6f6e20455243373231526560008201527f63656976657220696d706c656d656e7465720000000000000000000000000000602082015250565b7f4f776e61626c653a206e6577206f776e657220697320746865207a65726f206160008201527f6464726573730000000000000000000000000000000000000000000000000000602082015250565b7f4552433732313a207472616e736665722066726f6d20696e636f72726563742060008201527f6f776e6572000000000000000000000000000000000000000000000000000000602082015250565b7f4552433732313a20746f6b656e20616c7265616479206d696e74656400000000600082015250565b7f4552433732313a207472616e7366657220746f20746865207a65726f2061646460008201527f7265737300000000000000000000000000000000000000000000000000000000602082015250565b7f4552433732313a20617070726f766520746f2063616c6c657200000000000000600082015250565b7f4552433732313a206f70657261746f7220717565727920666f72206e6f6e657860008201527f697374656e7420746f6b656e0000000000000000000000000000000000000000602082015250565b7f4552433732313a20617070726f76652063616c6c6572206973206e6f74206f7760008201527f6e6572206e6f7220617070726f76656420666f7220616c6c0000000000000000602082015250565b7f4e6f7420656e6f756768742065746865722073656e742e000000000000000000600082015250565b7f4552433732313a2062616c616e636520717565727920666f7220746865207a6560008201527f726f206164647265737300000000000000000000000000000000000000000000602082015250565b7f4552433732313a206f776e657220717565727920666f72206e6f6e657869737460008201527f656e7420746f6b656e0000000000000000000000000000000000000000000000602082015250565b7f4552433732313a206d696e7420746f20746865207a65726f2061646472657373600082015250565b7f4552433732313a20617070726f76656420717565727920666f72206e6f6e657860008201527f697374656e7420746f6b656e0000000000000000000000000000000000000000602082015250565b7f4f776e61626c653a2063616c6c6572206973206e6f7420746865206f776e6572600082015250565b7f526f6d652d4e5920416972706c616e652069732066756c6c0000000000000000600082015250565b7f4552433732314d657461646174613a2055524920717565727920666f72206e6f60008201527f6e6578697374656e7420746f6b656e0000000000000000000000000000000000602082015250565b7f4552433732313a20617070726f76616c20746f2063757272656e74206f776e6560008201527f7200000000000000000000000000000000000000000000000000000000000000602082015250565b7f4552433732313a207472616e736665722063616c6c6572206973206e6f74206f60008201527f776e6572206e6f7220617070726f766564000000000000000000000000000000602082015250565b7f455243373231456e756d657261626c653a20676c6f62616c20696e646578206f60008201527f7574206f6620626f756e64730000000000000000000000000000000000000000602082015250565b61365581612e32565b811461366057600080fd5b50565b61366c81612e44565b811461367757600080fd5b50565b61368381612e50565b811461368e57600080fd5b50565b61369a81612e9c565b81146136a557600080fd5b5056fea26469706673582212200627c199e660178b1232bd2918fbcf87df6aa17a96bca36b18aa239ae856f3c364736f6c63430008070033",
  "immutableReferences": {},
  "source": "// SPDX-License-Identifier: MIT\r\npragma solidity ^0.8.4;\r\n\r\nimport \"@openzeppelin/contracts/token/ERC721/ERC721.sol\";\r\nimport \"@openzeppelin/contracts/token/ERC721/extensions/ERC721Enumerable.sol\";\r\nimport \"@openzeppelin/contracts/access/Ownable.sol\";\r\nimport \"@openzeppelin/contracts/utils/Counters.sol\";\r\n\r\ncontract FlightRomeNYNFT is ERC721, ERC721Enumerable, Ownable {\r\n    using Counters for Counters.Counter;\r\n    uint256 public constant maxSupply = 100;\r\n    Counters.Counter private _tokenIdCounter;\r\n    event TicketBought(address _from, address _to, uint256 _id);\r\n\r\n    constructor() ERC721(\"FlightRomeNYNFT\", \"FRM\") {}\r\n\r\n    function safeMint() public payable returns (uint256) {\r\n        require(totalSupply() < maxSupply, \"Rome-NY Airplane is full\");\r\n        require(msg.value == 1 ether, \"Not enought ether sent.\");\r\n        _tokenIdCounter.increment();\r\n        uint256 id = _tokenIdCounter.current();\r\n        _safeMint(msg.sender, id);\r\n        payable(owner()).transfer(msg.value);\r\n        emit TicketBought(msg.sender, owner(), id);\r\n        return id;\r\n    }\r\n\r\n    function _beforeTokenTransfer(\r\n        address from,\r\n        address to,\r\n        uint256 tokenId\r\n    ) internal override(ERC721, ERC721Enumerable) {\r\n        super._beforeTokenTransfer(from, to, tokenId);\r\n    }\r\n\r\n    function supportsInterface(bytes4 interfaceId)\r\n        public\r\n        view\r\n        override(ERC721, ERC721Enumerable)\r\n        returns (bool)\r\n    {\r\n        return super.supportsInterface(interfaceId);\r\n    }\r\n\r\n    function returnLastId() public view returns (uint256) {\r\n        return _tokenIdCounter.current();\r\n    }\r\n}\r\n",
  "sourcePath": "C:\\Users\\gf19\\Desktop\\start2impact\\5 - smart contract\\progetto\\finito\\fly_company\\smart_contract\\contracts\\FlightRomeNYNFT.sol",
  "compiler": {
    "name": "solc",
    "version": "0.8.7+commit.e28d00a7.Emscripten.clang"
  },
  "schemaVersion": "3.4.7",
  "updatedAt": "2022-06-27T16:33:22.838Z",
  "networkType": "ethereum",
  "devdoc": {
    "kind": "dev",
    "methods": {
      "approve(address,uint256)": {
        "details": "See {IERC721-approve}."
      },
      "balanceOf(address)": {
        "details": "See {IERC721-balanceOf}."
      },
      "getApproved(uint256)": {
        "details": "See {IERC721-getApproved}."
      },
      "isApprovedForAll(address,address)": {
        "details": "See {IERC721-isApprovedForAll}."
      },
      "name()": {
        "details": "See {IERC721Metadata-name}."
      },
      "owner()": {
        "details": "Returns the address of the current owner."
      },
      "ownerOf(uint256)": {
        "details": "See {IERC721-ownerOf}."
      },
      "renounceOwnership()": {
        "details": "Leaves the contract without owner. It will not be possible to call `onlyOwner` functions anymore. Can only be called by the current owner. NOTE: Renouncing ownership will leave the contract without an owner, thereby removing any functionality that is only available to the owner."
      },
      "safeTransferFrom(address,address,uint256)": {
        "details": "See {IERC721-safeTransferFrom}."
      },
      "safeTransferFrom(address,address,uint256,bytes)": {
        "details": "See {IERC721-safeTransferFrom}."
      },
      "setApprovalForAll(address,bool)": {
        "details": "See {IERC721-setApprovalForAll}."
      },
      "symbol()": {
        "details": "See {IERC721Metadata-symbol}."
      },
      "tokenByIndex(uint256)": {
        "details": "See {IERC721Enumerable-tokenByIndex}."
      },
      "tokenOfOwnerByIndex(address,uint256)": {
        "details": "See {IERC721Enumerable-tokenOfOwnerByIndex}."
      },
      "tokenURI(uint256)": {
        "details": "See {IERC721Metadata-tokenURI}."
      },
      "totalSupply()": {
        "details": "See {IERC721Enumerable-totalSupply}."
      },
      "transferFrom(address,address,uint256)": {
        "details": "See {IERC721-transferFrom}."
      },
      "transferOwnership(address)": {
        "details": "Transfers ownership of the contract to a new account (`newOwner`). Can only be called by the current owner."
      }
    },
    "version": 1
  },
  "userdoc": {
    "kind": "user",
    "methods": {},
    "version": 1
  }
}