{
  "contractName": "MyCompanyFlightTickets",
  "abi": [
    {
      "inputs": [],
      "stateMutability": "nonpayable",
      "type": "constructor"
    },
    {
      "inputs": [],
      "name": "owner",
      "outputs": [
        {
          "internalType": "address",
          "name": "",
          "type": "address"
        }
      ],
      "stateMutability": "view",
      "type": "function",
      "constant": true
    },
    {
      "inputs": [
        {
          "internalType": "string",
          "name": "",
          "type": "string"
        }
      ],
      "name": "ticketCodeToTicked",
      "outputs": [
        {
          "internalType": "string",
          "name": "customer_name",
          "type": "string"
        },
        {
          "internalType": "string",
          "name": "customer_last_name",
          "type": "string"
        },
        {
          "internalType": "string",
          "name": "departure_city",
          "type": "string"
        },
        {
          "internalType": "string",
          "name": "arrival_city",
          "type": "string"
        },
        {
          "internalType": "string",
          "name": "date_of_purchase",
          "type": "string"
        },
        {
          "internalType": "string",
          "name": "departure_date",
          "type": "string"
        },
        {
          "internalType": "uint256",
          "name": "price",
          "type": "uint256"
        },
        {
          "internalType": "string",
          "name": "airplane_code",
          "type": "string"
        },
        {
          "internalType": "string",
          "name": "ticket_code",
          "type": "string"
        }
      ],
      "stateMutability": "view",
      "type": "function",
      "constant": true
    },
    {
      "inputs": [
        {
          "internalType": "uint256",
          "name": "",
          "type": "uint256"
        }
      ],
      "name": "tickets",
      "outputs": [
        {
          "internalType": "string",
          "name": "customer_name",
          "type": "string"
        },
        {
          "internalType": "string",
          "name": "customer_last_name",
          "type": "string"
        },
        {
          "internalType": "string",
          "name": "departure_city",
          "type": "string"
        },
        {
          "internalType": "string",
          "name": "arrival_city",
          "type": "string"
        },
        {
          "internalType": "string",
          "name": "date_of_purchase",
          "type": "string"
        },
        {
          "internalType": "string",
          "name": "departure_date",
          "type": "string"
        },
        {
          "internalType": "uint256",
          "name": "price",
          "type": "uint256"
        },
        {
          "internalType": "string",
          "name": "airplane_code",
          "type": "string"
        },
        {
          "internalType": "string",
          "name": "ticket_code",
          "type": "string"
        }
      ],
      "stateMutability": "view",
      "type": "function",
      "constant": true
    },
    {
      "inputs": [
        {
          "internalType": "string",
          "name": "_customer_name",
          "type": "string"
        },
        {
          "internalType": "string",
          "name": "_customer_last_name",
          "type": "string"
        },
        {
          "internalType": "string",
          "name": "_departure_city",
          "type": "string"
        },
        {
          "internalType": "string",
          "name": "_arrival_city",
          "type": "string"
        },
        {
          "internalType": "string",
          "name": "_date_of_purchase",
          "type": "string"
        },
        {
          "internalType": "string",
          "name": "_departure_date",
          "type": "string"
        },
        {
          "internalType": "uint256",
          "name": "_price",
          "type": "uint256"
        },
        {
          "internalType": "string",
          "name": "_airplane_code",
          "type": "string"
        },
        {
          "internalType": "string",
          "name": "_ticket_code",
          "type": "string"
        }
      ],
      "name": "addTicket",
      "outputs": [],
      "stateMutability": "nonpayable",
      "type": "function"
    },
    {
      "inputs": [],
      "name": "getAllTickets",
      "outputs": [
        {
          "components": [
            {
              "internalType": "string",
              "name": "customer_name",
              "type": "string"
            },
            {
              "internalType": "string",
              "name": "customer_last_name",
              "type": "string"
            },
            {
              "internalType": "string",
              "name": "departure_city",
              "type": "string"
            },
            {
              "internalType": "string",
              "name": "arrival_city",
              "type": "string"
            },
            {
              "internalType": "string",
              "name": "date_of_purchase",
              "type": "string"
            },
            {
              "internalType": "string",
              "name": "departure_date",
              "type": "string"
            },
            {
              "internalType": "uint256",
              "name": "price",
              "type": "uint256"
            },
            {
              "internalType": "string",
              "name": "airplane_code",
              "type": "string"
            },
            {
              "internalType": "string",
              "name": "ticket_code",
              "type": "string"
            }
          ],
          "internalType": "struct MyCompanyFlightTickets.Ticket[]",
          "name": "",
          "type": "tuple[]"
        }
      ],
      "stateMutability": "view",
      "type": "function",
      "constant": true
    },
    {
      "inputs": [
        {
          "internalType": "string",
          "name": "_ticket_code",
          "type": "string"
        }
      ],
      "name": "getTicketFromCode",
      "outputs": [
        {
          "components": [
            {
              "internalType": "string",
              "name": "customer_name",
              "type": "string"
            },
            {
              "internalType": "string",
              "name": "customer_last_name",
              "type": "string"
            },
            {
              "internalType": "string",
              "name": "departure_city",
              "type": "string"
            },
            {
              "internalType": "string",
              "name": "arrival_city",
              "type": "string"
            },
            {
              "internalType": "string",
              "name": "date_of_purchase",
              "type": "string"
            },
            {
              "internalType": "string",
              "name": "departure_date",
              "type": "string"
            },
            {
              "internalType": "uint256",
              "name": "price",
              "type": "uint256"
            },
            {
              "internalType": "string",
              "name": "airplane_code",
              "type": "string"
            },
            {
              "internalType": "string",
              "name": "ticket_code",
              "type": "string"
            }
          ],
          "internalType": "struct MyCompanyFlightTickets.Ticket",
          "name": "",
          "type": "tuple"
        }
      ],
      "stateMutability": "view",
      "type": "function",
      "constant": true
    },
    {
      "inputs": [],
      "name": "returnFirstTicket",
      "outputs": [
        {
          "components": [
            {
              "internalType": "string",
              "name": "customer_name",
              "type": "string"
            },
            {
              "internalType": "string",
              "name": "customer_last_name",
              "type": "string"
            },
            {
              "internalType": "string",
              "name": "departure_city",
              "type": "string"
            },
            {
              "internalType": "string",
              "name": "arrival_city",
              "type": "string"
            },
            {
              "internalType": "string",
              "name": "date_of_purchase",
              "type": "string"
            },
            {
              "internalType": "string",
              "name": "departure_date",
              "type": "string"
            },
            {
              "internalType": "uint256",
              "name": "price",
              "type": "uint256"
            },
            {
              "internalType": "string",
              "name": "airplane_code",
              "type": "string"
            },
            {
              "internalType": "string",
              "name": "ticket_code",
              "type": "string"
            }
          ],
          "internalType": "struct MyCompanyFlightTickets.Ticket",
          "name": "",
          "type": "tuple"
        }
      ],
      "stateMutability": "view",
      "type": "function",
      "constant": true
    }
  ],
  "bytecode": "0x60806040523480156200001157600080fd5b5033600260006101000a81548173ffffffffffffffffffffffffffffffffffffffff021916908373ffffffffffffffffffffffffffffffffffffffff16021790555060006040518061012001604052806040518060400160405280600781526020017f46696c6970706f0000000000000000000000000000000000000000000000000081525081526020016040518060400160405280600881526020017f4761627269656c6500000000000000000000000000000000000000000000000081525081526020016040518060400160405280600181526020017f300000000000000000000000000000000000000000000000000000000000000081525081526020016040518060400160405280600181526020017f300000000000000000000000000000000000000000000000000000000000000081525081526020016040518060400160405280600181526020017f300000000000000000000000000000000000000000000000000000000000000081525081526020016040518060400160405280600181526020017f30000000000000000000000000000000000000000000000000000000000000008152508152602001600081526020016040518060400160405280600181526020017f300000000000000000000000000000000000000000000000000000000000000081525081526020016040518060400160405280600181526020017f3000000000000000000000000000000000000000000000000000000000000000815250815250908060018154018082558091505060019003906000526020600020906009020160009091909190915060008201518160000190805190602001906200028592919062000372565b506020820151816001019080519060200190620002a492919062000372565b506040820151816002019080519060200190620002c392919062000372565b506060820151816003019080519060200190620002e292919062000372565b5060808201518160040190805190602001906200030192919062000372565b5060a08201518160050190805190602001906200032092919062000372565b5060c0820151816006015560e08201518160070190805190602001906200034992919062000372565b506101008201518160080190805190602001906200036992919062000372565b50505062000487565b828054620003809062000422565b90600052602060002090601f016020900481019282620003a45760008555620003f0565b82601f10620003bf57805160ff1916838001178555620003f0565b82800160010185558215620003f0579182015b82811115620003ef578251825591602001919060010190620003d2565b5b509050620003ff919062000403565b5090565b5b808211156200041e57600081600090555060010162000404565b5090565b600060028204905060018216806200043b57607f821691505b6020821081141562000452576200045162000458565b5b50919050565b7f4e487b7100000000000000000000000000000000000000000000000000000000600052602260045260246000fd5b6127df80620004976000396000f3fe608060405234801561001057600080fd5b506004361061007d5760003560e01c806350b447121161005b57806350b44712146100da57806358d243c6146101125780638da5cb5b14610142578063964d18dd146101605761007d565b806303e96fe3146100825780631bd98ca6146100a057806334cf62d8146100be575b600080fd5b61008a610198565b60405161009791906123e6565b60405180910390f35b6100a8610692565b6040516100b591906124ed565b60405180910390f35b6100d860048036038101906100d39190611e75565b610b67565b005b6100f460048036038101906100ef919061201f565b610e7d565b60405161010999989796959493929190612408565b60405180910390f35b61012c60048036038101906101279190611e2c565b61131b565b60405161013991906124ed565b60405180910390f35b61014a6117ee565b60405161015791906123cb565b60405180910390f35b61017a60048036038101906101759190611e2c565b611814565b60405161018f99989796959493929190612408565b60405180910390f35b60606000805480602002602001604051908101604052809291908181526020016000905b828210156106895783829060005260206000209060090201604051806101200160405290816000820180546101f090612654565b80601f016020809104026020016040519081016040528092919081815260200182805461021c90612654565b80156102695780601f1061023e57610100808354040283529160200191610269565b820191906000526020600020905b81548152906001019060200180831161024c57829003601f168201915b5050505050815260200160018201805461028290612654565b80601f01602080910402602001604051908101604052809291908181526020018280546102ae90612654565b80156102fb5780601f106102d0576101008083540402835291602001916102fb565b820191906000526020600020905b8154815290600101906020018083116102de57829003601f168201915b5050505050815260200160028201805461031490612654565b80601f016020809104026020016040519081016040528092919081815260200182805461034090612654565b801561038d5780601f106103625761010080835404028352916020019161038d565b820191906000526020600020905b81548152906001019060200180831161037057829003601f168201915b505050505081526020016003820180546103a690612654565b80601f01602080910402602001604051908101604052809291908181526020018280546103d290612654565b801561041f5780601f106103f45761010080835404028352916020019161041f565b820191906000526020600020905b81548152906001019060200180831161040257829003601f168201915b5050505050815260200160048201805461043890612654565b80601f016020809104026020016040519081016040528092919081815260200182805461046490612654565b80156104b15780601f10610486576101008083540402835291602001916104b1565b820191906000526020600020905b81548152906001019060200180831161049457829003601f168201915b505050505081526020016005820180546104ca90612654565b80601f01602080910402602001604051908101604052809291908181526020018280546104f690612654565b80156105435780601f1061051857610100808354040283529160200191610543565b820191906000526020600020905b81548152906001019060200180831161052657829003601f168201915b505050505081526020016006820154815260200160078201805461056690612654565b80601f016020809104026020016040519081016040528092919081815260200182805461059290612654565b80156105df5780601f106105b4576101008083540402835291602001916105df565b820191906000526020600020905b8154815290600101906020018083116105c257829003601f168201915b505050505081526020016008820180546105f890612654565b80601f016020809104026020016040519081016040528092919081815260200182805461062490612654565b80156106715780601f1061064657610100808354040283529160200191610671565b820191906000526020600020905b81548152906001019060200180831161065457829003601f168201915b505050505081525050815260200190600101906101bc565b50505050905090565b61069a611cb8565b600080815481106106ae576106ad6126e6565b5b9060005260206000209060090201604051806101200160405290816000820180546106d890612654565b80601f016020809104026020016040519081016040528092919081815260200182805461070490612654565b80156107515780601f1061072657610100808354040283529160200191610751565b820191906000526020600020905b81548152906001019060200180831161073457829003601f168201915b5050505050815260200160018201805461076a90612654565b80601f016020809104026020016040519081016040528092919081815260200182805461079690612654565b80156107e35780601f106107b8576101008083540402835291602001916107e3565b820191906000526020600020905b8154815290600101906020018083116107c657829003601f168201915b505050505081526020016002820180546107fc90612654565b80601f016020809104026020016040519081016040528092919081815260200182805461082890612654565b80156108755780601f1061084a57610100808354040283529160200191610875565b820191906000526020600020905b81548152906001019060200180831161085857829003601f168201915b5050505050815260200160038201805461088e90612654565b80601f01602080910402602001604051908101604052809291908181526020018280546108ba90612654565b80156109075780601f106108dc57610100808354040283529160200191610907565b820191906000526020600020905b8154815290600101906020018083116108ea57829003601f168201915b5050505050815260200160048201805461092090612654565b80601f016020809104026020016040519081016040528092919081815260200182805461094c90612654565b80156109995780601f1061096e57610100808354040283529160200191610999565b820191906000526020600020905b81548152906001019060200180831161097c57829003601f168201915b505050505081526020016005820180546109b290612654565b80601f01602080910402602001604051908101604052809291908181526020018280546109de90612654565b8015610a2b5780601f10610a0057610100808354040283529160200191610a2b565b820191906000526020600020905b815481529060010190602001808311610a0e57829003601f168201915b5050505050815260200160068201548152602001600782018054610a4e90612654565b80601f0160208091040260200160405190810160405280929190818152602001828054610a7a90612654565b8015610ac75780601f10610a9c57610100808354040283529160200191610ac7565b820191906000526020600020905b815481529060010190602001808311610aaa57829003601f168201915b50505050508152602001600882018054610ae090612654565b80601f0160208091040260200160405190810160405280929190818152602001828054610b0c90612654565b8015610b595780601f10610b2e57610100808354040283529160200191610b59565b820191906000526020600020905b815481529060010190602001808311610b3c57829003601f168201915b505050505081525050905090565b600260009054906101000a900473ffffffffffffffffffffffffffffffffffffffff1673ffffffffffffffffffffffffffffffffffffffff163373ffffffffffffffffffffffffffffffffffffffff1614610bf7576040517f08c379a0000000000000000000000000000000000000000000000000000000008152600401610bee906124cd565b60405180910390fd5b60006040518061012001604052808b81526020018a815260200189815260200188815260200187815260200186815260200185815260200184815260200183815250905060008190806001815401808255809150506001900390600052602060002090600902016000909190919091506000820151816000019080519060200190610c83929190611d04565b506020820151816001019080519060200190610ca0929190611d04565b506040820151816002019080519060200190610cbd929190611d04565b506060820151816003019080519060200190610cda929190611d04565b506080820151816004019080519060200190610cf7929190611d04565b5060a0820151816005019080519060200190610d14929190611d04565b5060c0820151816006015560e0820151816007019080519060200190610d3b929190611d04565b50610100820151816008019080519060200190610d59929190611d04565b50505080600183604051610d6d91906123b4565b90815260200160405180910390206000820151816000019080519060200190610d97929190611d04565b506020820151816001019080519060200190610db4929190611d04565b506040820151816002019080519060200190610dd1929190611d04565b506060820151816003019080519060200190610dee929190611d04565b506080820151816004019080519060200190610e0b929190611d04565b5060a0820151816005019080519060200190610e28929190611d04565b5060c0820151816006015560e0820151816007019080519060200190610e4f929190611d04565b50610100820151816008019080519060200190610e6d929190611d04565b5090505050505050505050505050565b60008181548110610e8d57600080fd5b9060005260206000209060090201600091509050806000018054610eb090612654565b80601f0160208091040260200160405190810160405280929190818152602001828054610edc90612654565b8015610f295780601f10610efe57610100808354040283529160200191610f29565b820191906000526020600020905b815481529060010190602001808311610f0c57829003601f168201915b505050505090806001018054610f3e90612654565b80601f0160208091040260200160405190810160405280929190818152602001828054610f6a90612654565b8015610fb75780601f10610f8c57610100808354040283529160200191610fb7565b820191906000526020600020905b815481529060010190602001808311610f9a57829003601f168201915b505050505090806002018054610fcc90612654565b80601f0160208091040260200160405190810160405280929190818152602001828054610ff890612654565b80156110455780601f1061101a57610100808354040283529160200191611045565b820191906000526020600020905b81548152906001019060200180831161102857829003601f168201915b50505050509080600301805461105a90612654565b80601f016020809104026020016040519081016040528092919081815260200182805461108690612654565b80156110d35780601f106110a8576101008083540402835291602001916110d3565b820191906000526020600020905b8154815290600101906020018083116110b657829003601f168201915b5050505050908060040180546110e890612654565b80601f016020809104026020016040519081016040528092919081815260200182805461111490612654565b80156111615780601f1061113657610100808354040283529160200191611161565b820191906000526020600020905b81548152906001019060200180831161114457829003601f168201915b50505050509080600501805461117690612654565b80601f01602080910402602001604051908101604052809291908181526020018280546111a290612654565b80156111ef5780601f106111c4576101008083540402835291602001916111ef565b820191906000526020600020905b8154815290600101906020018083116111d257829003601f168201915b50505050509080600601549080600701805461120a90612654565b80601f016020809104026020016040519081016040528092919081815260200182805461123690612654565b80156112835780601f1061125857610100808354040283529160200191611283565b820191906000526020600020905b81548152906001019060200180831161126657829003601f168201915b50505050509080600801805461129890612654565b80601f01602080910402602001604051908101604052809291908181526020018280546112c490612654565b80156113115780601f106112e657610100808354040283529160200191611311565b820191906000526020600020905b8154815290600101906020018083116112f457829003601f168201915b5050505050905089565b611323611cb8565b60018260405161133391906123b4565b90815260200160405180910390206040518061012001604052908160008201805461135d90612654565b80601f016020809104026020016040519081016040528092919081815260200182805461138990612654565b80156113d65780601f106113ab576101008083540402835291602001916113d6565b820191906000526020600020905b8154815290600101906020018083116113b957829003601f168201915b505050505081526020016001820180546113ef90612654565b80601f016020809104026020016040519081016040528092919081815260200182805461141b90612654565b80156114685780601f1061143d57610100808354040283529160200191611468565b820191906000526020600020905b81548152906001019060200180831161144b57829003601f168201915b5050505050815260200160028201805461148190612654565b80601f01602080910402602001604051908101604052809291908181526020018280546114ad90612654565b80156114fa5780601f106114cf576101008083540402835291602001916114fa565b820191906000526020600020905b8154815290600101906020018083116114dd57829003601f168201915b5050505050815260200160038201805461151390612654565b80601f016020809104026020016040519081016040528092919081815260200182805461153f90612654565b801561158c5780601f106115615761010080835404028352916020019161158c565b820191906000526020600020905b81548152906001019060200180831161156f57829003601f168201915b505050505081526020016004820180546115a590612654565b80601f01602080910402602001604051908101604052809291908181526020018280546115d190612654565b801561161e5780601f106115f35761010080835404028352916020019161161e565b820191906000526020600020905b81548152906001019060200180831161160157829003601f168201915b5050505050815260200160058201805461163790612654565b80601f016020809104026020016040519081016040528092919081815260200182805461166390612654565b80156116b05780601f10611685576101008083540402835291602001916116b0565b820191906000526020600020905b81548152906001019060200180831161169357829003601f168201915b50505050508152602001600682015481526020016007820180546116d390612654565b80601f01602080910402602001604051908101604052809291908181526020018280546116ff90612654565b801561174c5780601f106117215761010080835404028352916020019161174c565b820191906000526020600020905b81548152906001019060200180831161172f57829003601f168201915b5050505050815260200160088201805461176590612654565b80601f016020809104026020016040519081016040528092919081815260200182805461179190612654565b80156117de5780601f106117b3576101008083540402835291602001916117de565b820191906000526020600020905b8154815290600101906020018083116117c157829003601f168201915b5050505050815250509050919050565b600260009054906101000a900473ffffffffffffffffffffffffffffffffffffffff1681565b60018180516020810182018051848252602083016020850120818352809550505050505060009150905080600001805461184d90612654565b80601f016020809104026020016040519081016040528092919081815260200182805461187990612654565b80156118c65780601f1061189b576101008083540402835291602001916118c6565b820191906000526020600020905b8154815290600101906020018083116118a957829003601f168201915b5050505050908060010180546118db90612654565b80601f016020809104026020016040519081016040528092919081815260200182805461190790612654565b80156119545780601f1061192957610100808354040283529160200191611954565b820191906000526020600020905b81548152906001019060200180831161193757829003601f168201915b50505050509080600201805461196990612654565b80601f016020809104026020016040519081016040528092919081815260200182805461199590612654565b80156119e25780601f106119b7576101008083540402835291602001916119e2565b820191906000526020600020905b8154815290600101906020018083116119c557829003601f168201915b5050505050908060030180546119f790612654565b80601f0160208091040260200160405190810160405280929190818152602001828054611a2390612654565b8015611a705780601f10611a4557610100808354040283529160200191611a70565b820191906000526020600020905b815481529060010190602001808311611a5357829003601f168201915b505050505090806004018054611a8590612654565b80601f0160208091040260200160405190810160405280929190818152602001828054611ab190612654565b8015611afe5780601f10611ad357610100808354040283529160200191611afe565b820191906000526020600020905b815481529060010190602001808311611ae157829003601f168201915b505050505090806005018054611b1390612654565b80601f0160208091040260200160405190810160405280929190818152602001828054611b3f90612654565b8015611b8c5780601f10611b6157610100808354040283529160200191611b8c565b820191906000526020600020905b815481529060010190602001808311611b6f57829003601f168201915b505050505090806006015490806007018054611ba790612654565b80601f0160208091040260200160405190810160405280929190818152602001828054611bd390612654565b8015611c205780601f10611bf557610100808354040283529160200191611c20565b820191906000526020600020905b815481529060010190602001808311611c0357829003601f168201915b505050505090806008018054611c3590612654565b80601f0160208091040260200160405190810160405280929190818152602001828054611c6190612654565b8015611cae5780601f10611c8357610100808354040283529160200191611cae565b820191906000526020600020905b815481529060010190602001808311611c9157829003601f168201915b5050505050905089565b6040518061012001604052806060815260200160608152602001606081526020016060815260200160608152602001606081526020016000815260200160608152602001606081525090565b828054611d1090612654565b90600052602060002090601f016020900481019282611d325760008555611d79565b82601f10611d4b57805160ff1916838001178555611d79565b82800160010185558215611d79579182015b82811115611d78578251825591602001919060010190611d5d565b5b509050611d869190611d8a565b5090565b5b80821115611da3576000816000905550600101611d8b565b5090565b6000611dba611db584612534565b61250f565b905082815260208101848484011115611dd657611dd5612749565b5b611de1848285612612565b509392505050565b600082601f830112611dfe57611dfd612744565b5b8135611e0e848260208601611da7565b91505092915050565b600081359050611e2681612792565b92915050565b600060208284031215611e4257611e41612753565b5b600082013567ffffffffffffffff811115611e6057611e5f61274e565b5b611e6c84828501611de9565b91505092915050565b60008060008060008060008060006101208a8c031215611e9857611e97612753565b5b60008a013567ffffffffffffffff811115611eb657611eb561274e565b5b611ec28c828d01611de9565b99505060208a013567ffffffffffffffff811115611ee357611ee261274e565b5b611eef8c828d01611de9565b98505060408a013567ffffffffffffffff811115611f1057611f0f61274e565b5b611f1c8c828d01611de9565b97505060608a013567ffffffffffffffff811115611f3d57611f3c61274e565b5b611f498c828d01611de9565b96505060808a013567ffffffffffffffff811115611f6a57611f6961274e565b5b611f768c828d01611de9565b95505060a08a013567ffffffffffffffff811115611f9757611f9661274e565b5b611fa38c828d01611de9565b94505060c0611fb48c828d01611e17565b93505060e08a013567ffffffffffffffff811115611fd557611fd461274e565b5b611fe18c828d01611de9565b9250506101008a013567ffffffffffffffff8111156120035761200261274e565b5b61200f8c828d01611de9565b9150509295985092959850929598565b60006020828403121561203557612034612753565b5b600061204384828501611e17565b91505092915050565b600061205883836121aa565b905092915050565b612069816125d6565b82525050565b600061207a82612575565b6120848185612598565b93508360208202850161209685612565565b8060005b858110156120d257848403895281516120b3858261204c565b94506120be8361258b565b925060208a0199505060018101905061209a565b50829750879550505050505092915050565b60006120ef82612580565b6120f981856125a9565b9350612109818560208601612621565b61211281612758565b840191505092915050565b600061212882612580565b61213281856125ba565b9350612142818560208601612621565b61214b81612758565b840191505092915050565b600061216182612580565b61216b81856125cb565b935061217b818560208601612621565b80840191505092915050565b6000612194601e836125ba565b915061219f82612769565b602082019050919050565b60006101208301600083015184820360008601526121c882826120e4565b915050602083015184820360208601526121e282826120e4565b915050604083015184820360408601526121fc82826120e4565b9150506060830151848203606086015261221682826120e4565b9150506080830151848203608086015261223082826120e4565b91505060a083015184820360a086015261224a82826120e4565b91505060c083015161225f60c0860182612396565b5060e083015184820360e086015261227782826120e4565b91505061010083015184820361010086015261229382826120e4565b9150508091505092915050565b60006101208301600083015184820360008601526122be82826120e4565b915050602083015184820360208601526122d882826120e4565b915050604083015184820360408601526122f282826120e4565b9150506060830151848203606086015261230c82826120e4565b9150506080830151848203608086015261232682826120e4565b91505060a083015184820360a086015261234082826120e4565b91505060c083015161235560c0860182612396565b5060e083015184820360e086015261236d82826120e4565b91505061010083015184820361010086015261238982826120e4565b9150508091505092915050565b61239f81612608565b82525050565b6123ae81612608565b82525050565b60006123c08284612156565b915081905092915050565b60006020820190506123e06000830184612060565b92915050565b60006020820190508181036000830152612400818461206f565b905092915050565b6000610120820190508181036000830152612423818c61211d565b90508181036020830152612437818b61211d565b9050818103604083015261244b818a61211d565b9050818103606083015261245f818961211d565b90508181036080830152612473818861211d565b905081810360a0830152612487818761211d565b905061249660c08301866123a5565b81810360e08301526124a8818561211d565b90508181036101008301526124bd818461211d565b90509a9950505050505050505050565b600060208201905081810360008301526124e681612187565b9050919050565b6000602082019050818103600083015261250781846122a0565b905092915050565b600061251961252a565b90506125258282612686565b919050565b6000604051905090565b600067ffffffffffffffff82111561254f5761254e612715565b5b61255882612758565b9050602081019050919050565b6000819050602082019050919050565b600081519050919050565b600081519050919050565b6000602082019050919050565b600082825260208201905092915050565b600082825260208201905092915050565b600082825260208201905092915050565b600081905092915050565b60006125e1826125e8565b9050919050565b600073ffffffffffffffffffffffffffffffffffffffff82169050919050565b6000819050919050565b82818337600083830152505050565b60005b8381101561263f578082015181840152602081019050612624565b8381111561264e576000848401525b50505050565b6000600282049050600182168061266c57607f821691505b602082108114156126805761267f6126b7565b5b50919050565b61268f82612758565b810181811067ffffffffffffffff821117156126ae576126ad612715565b5b80604052505050565b7f4e487b7100000000000000000000000000000000000000000000000000000000600052602260045260246000fd5b7f4e487b7100000000000000000000000000000000000000000000000000000000600052603260045260246000fd5b7f4e487b7100000000000000000000000000000000000000000000000000000000600052604160045260246000fd5b600080fd5b600080fd5b600080fd5b600080fd5b6000601f19601f8301169050919050565b7f4f6e6c7920746865206f776e65722063616e2061646420706c61796572730000600082015250565b61279b81612608565b81146127a657600080fd5b5056fea26469706673582212204cb79b6195a40c243b342671efb1daef7779ef453b85e53bcea4e02f3474154764736f6c63430008070033",
  "immutableReferences": {},
  "source": "// SPDX-License-Identifier: MIT\r\npragma solidity >=0.8.7;\r\n\r\ncontract MyCompanyFlightTickets {\r\n    struct Ticket {\r\n        string customer_name;\r\n        string customer_last_name;\r\n        string departure_city;\r\n        string arrival_city;\r\n        string date_of_purchase;\r\n        string departure_date;\r\n        uint256 price;\r\n        string airplane_code;\r\n        string ticket_code;\r\n    }\r\n\r\n    Ticket[] public tickets;\r\n    mapping(string => Ticket) public ticketCodeToTicked;\r\n    address public owner;\r\n\r\n    constructor() {\r\n        owner = msg.sender;\r\n        tickets.push(Ticket(\"Filippo\", \"Gabriele\",\"0\",\"0\", \"0\", \"0\", 0, \"0\", \"0\"));\r\n    }\r\n\r\n    modifier onlyOwner() {\r\n        require(msg.sender == owner, \"Only the owner can add players\");\r\n        _;\r\n    }\r\n\r\n    function addTicket(string memory _customer_name, \r\n    string memory _customer_last_name,\r\n    string memory _departure_city,\r\n    string memory _arrival_city,\r\n    string memory _date_of_purchase,\r\n    string memory _departure_date,\r\n    uint256 _price,\r\n    string memory _airplane_code,\r\n    string memory _ticket_code\r\n    ) public onlyOwner {\r\n        Ticket memory new_ticket = Ticket({\r\n            customer_name: _customer_name,\r\n            customer_last_name: _customer_last_name,\r\n            departure_city: _departure_city,\r\n            arrival_city: _arrival_city,\r\n            date_of_purchase: _date_of_purchase,\r\n            departure_date: _departure_date,\r\n            price: _price,\r\n            airplane_code: _airplane_code,\r\n            ticket_code: _ticket_code\r\n        });\r\n        tickets.push(new_ticket);\r\n        ticketCodeToTicked[_ticket_code] = new_ticket;\r\n    }\r\n\r\n    function getAllTickets() public view returns (Ticket[] memory) {\r\n        return tickets;\r\n    }\r\n\r\n    function getTicketFromCode(string memory _ticket_code) public view returns(Ticket memory){\r\n        return ticketCodeToTicked[_ticket_code];\r\n    }\r\n\r\n    function returnFirstTicket() public view returns (Ticket memory) {\r\n        return tickets[0];\r\n    }\r\n}\r\n",
  "sourcePath": "C:\\Users\\gabri\\Desktop\\filippo\\fly2\\fly_company\\smart_contract\\contracts\\MyCompanyFlightTickets.sol",
  "compiler": {
    "name": "solc",
    "version": "0.8.7+commit.e28d00a7.Emscripten.clang"
  },
  "schemaVersion": "3.4.7",
  "updatedAt": "2022-05-16T16:12:09.027Z",
  "networkType": "ethereum",
  "devdoc": {
    "kind": "dev",
    "methods": {},
    "version": 1
  },
  "userdoc": {
    "kind": "user",
    "methods": {},
    "version": 1
  }
}